:020000022000DC
:1060000000020020C96C0200556C0200656C0200A1
:10601000756C0200856C0200956C020000000000A7
:10602000000000000000000000000000396C0200C9
:10603000A56C020000000000ED6B0200B56C0200D0
:10604000E1E502003DF7020015EC0200996E020046
:10605000B56E0200E1E50200E1E50200E1E50200C3
:10606000E1E50200E9E90200EFE90200E1E50200F2
:10607000E1E50200E1E50200E1E50200E1E5020000
:10608000E1E50200F1E60200E1E50200E1E50200DF
:10609000E1E50200E1E50200E1E50200E1E50200E0
:1060A000E1E50200E1E50200F5E90200FBE902009A
:1060B000E1E50200E1E50200000000000000000050
:1060C000E1E50200E1E50200E1E50200D16E020037
:1060D000E1E50200E1E50200E1E502005DF1020018
:1060E000E1E50200E1E50200E1E502000000000058
:1060F00000000000E1E5020000000000ED6E02007B
:10610000034B4FF47A71414318680BF0D7B800BFC6
:106110007829030030B5032087B0FFF7F1FF1C4852
:106120001C4D07F01BFF0A24002003F094FC68B903
:10613000284607F013FF0120FFF7E2FF013CF3D1EF
:10614000154807F00BFF012007B030BD012340F2D6
:106150000322B0F972018DF80B30CDE90032142121
:106160000DF10B03002203F0E3F90C4B0020CDE905
:1061700003030B4B03A91B88ADF8143004F0C8FBD4
:10618000084807F0EBFE0A20FFF7BAFFFBE700BF65
:10619000FC1D0300111E03002F1E03000000FFFF63
:1061A000A0390020601E030070B5064E064CA41BEB
:1061B000A4080025AC4200D170BD56F825309847A0
:1061C0000135F7E798290300BC29030013B5002027
:1061D00008F0AEFF084C014620460AF01BFD2046A1
:1061E0000AF032F8054B0648009401224FF4806112
:1061F0000AF01CFD02B010BDB0020020901E03008A
:1062000060040020704700004FF080435722C3F81D
:106210001C25BFF34F8F0549054BCA6802F4E062A5
:106220001343CB60BFF34F8F00BFFDE700ED00E0ED
:106230000400FA0508B5FFF7B7FF034807F08EFE24
:10624000FFF768FF002008BD961E03001FB5EFF39F
:10625000108372B6074B029300230193064B009301
:10626000072204234FF4C061044800F0DFFB00F074
:10627000A7FC00BFD01E03003562020060080020AA
:1062800008B509F091FBBDE8084009F091BD7047E1
:1062900008B50B4B1A680C4652B901221A60FFF779
:1062A000F6FF0848214607F02DFE074807F056FE86
:1062B000EFF3108372B600F03BFC00F03BFC00BF34
:1062C000600E0020D51E0300F11E030070B50D46C0
:1062D0000021044600F0CEF90D4E70B9BFF35B8F7C
:1062E000E388BFF35B8F32881BB212B29A4204D0AC
:1062F0006DB90121204600F0BDF93388BFF35B8FF3
:10630000E380BFF35B8FA3880133A380012070BDBE
:10631000380F00200021FFF7D9BF8388013B9BB2D3
:10632000838033B9BFF35B8FC380BFF35B8F00F013
:10633000D5B97047F8B50346EFF3108672B6304A08
:106340001468676A002F54D0D4E90620904250D0D8
:10635000501CA061206A024039B9616929B9511CF9
:1063600003D186F310881046F8BD002A45DB07EB01
:10637000C20103C983E8030065697DB9002A27DAF1
:106380000421204600F028FA86F310881D4B4FF0B8
:1063900080525A60BFF36F8F0122E4E755F80C1961
:1063A0006161002A0CDBD4E90731A2699A1A914293
:1063B000A9BF5A1C4FF0FF330B40E26107EBC30348
:1063C0002A6992E8030083E803002B79062B02D1A7
:1063D00086F31088E0E7002328462B610C2100F0AB
:1063E000FBF9687986F310880E28D5D800F030FACA
:1063F000D2E74FF0FF320029AFD02361BCE700BFE6
:10640000AC0E002000ED00E00346D0E9072010B5F7
:106410009C69141BA04201DA002010BD541C0240EC
:10642000DC61F9D4586A00EBC20203C982E80300B8
:106430004FF40041184600F083FA0120EDE7000018
:1064400008B50E4B53F82130A3B11A79042A0BD1A9
:1064500003C81A6982E8030018460C2100F0BCF951
:10646000074B0120186008BD01461846BDE80840EA
:10647000FFF7CABF4FF0FF30F5E700BFB40E0020B2
:10648000A80E00202DE9F0411C46274B53F821505F
:10649000264B1B880380064690462DB984F310884E
:1064A0004FF0FF30BDE8F081214B1F682B79042BA2
:1064B00030D001462846FFF7A7FF78B184F3108853
:1064C0003B79062B02D01B4B1B682BB11A4B4FF0AC
:1064D00080525A60BFF36F8F0120E3E7B8F1000FDD
:1064E00002D184F31088DDE73B793E61062B14BFAF
:1064F00005210621384600F06FF9394605F11400F0
:1065000000F086FA4FF40041284600F019FA84F3AF
:106510001088DBE7D0E900012B6983E803000C2138
:10652000284600F059F9F2E7B40E0020380F002099
:10653000AC0E0020A80E002000ED00E010B50146D2
:10654000EFF3108472B6054B1B880380044B186868
:10655000FFF75AFF84F3108810BD00BF380F0020EA
:10656000AC0E002021230380FFF76ABFEFF3058301
:10657000DBB20BB1FFF7F6BF064B1B881BB299428B
:1065800001D1FFF7DBBFEFF3108372B60122FFF7F3
:1065900079BF00BF380F002010B4EFF3058212F06E
:1065A000FF0203D05DF8044BFFF7DCBF074B1B88ED
:1065B0001BB2994203D15DF8044BFFF7BFBFEFF365
:1065C000108372B65DF8044BFFF75CBF380F0020F4
:1065D0002DE9F04105460C461646EFF3108872B6D9
:1065E000094B1F680621384600F0F6F895E80300CD
:1065F0003C61434684E80300012231462046BDE861
:10660000F041FFF73FBF00BFAC0E002038B5EFF3FD
:10661000108572B60D4BB0F9002053F82240237953
:10662000062B04D085F310884FF0FF3038BD03C926
:10663000236983E8030020460C2100F0CDF860793F
:1066400085F3108800F004F90120EFE7B40E002074
:106650000021FFF76FBE0121FFF76CBE044B1B68E2
:1066600000220139C3E9062258621962704700BF4F
:10667000AC0E002070B504460846EFF3108672B6E3
:10668000236833B94FF0FF33236086F3108801206D
:1066900070BD11B986F31088FAE70E4B1D6803210F
:1066A000284600F099F8236801330DD105F10C0359
:1066B00023600023EB6086F31088074B4FF0805275
:1066C0005A60BFF36F8FE2E72946204600F0A0F939
:1066D000F1E700BFAC0E002000ED00E038B5044645
:1066E000EFF3108572B6006810B985F3108838BDD5
:1066F000431C02D100232360F7E750F80C392360D4
:106700000C2100F069F8236813B94FF0FF332360C0
:1067100085F31088034B4FF080525A60BFF36F8FA0
:10672000E5E700BF00ED00E0026810B54AB113686C
:106730008B4207D19A4202D10023036001E01B681B
:10674000136010BD13461B681C68A14202D09A4218
:10675000F9D1F6E7002BF4D00A681A60026891427A
:10676000EFD1EAE770B5174D174E2B68346833BB8D
:1067700024B123790B2B04BF0C23237100F064FA9E
:106780002B68002BFAD00023104A002111602A68E0
:106790000F49B2FA82F251F8222010680C380B220D
:1067A000844202710AD023B11A790B2A04BF0C2249
:1067B0001A71084BB0F906201A80306070BD23466C
:1067C000E2E700BF640E0020AC0E0020A80E0020FF
:1067D000680E0020380F002070B50A29037904469E
:1067E0000D461AD90A2B14D84279174B00F10C0127
:1067F00053F8220078B10068E06053F8220001608D
:1068000043F8221011494FF00043D3400A68134364
:106810000B60257170BDE160F2E70A2BF9D9407970
:10682000094E04F10C0106EB8000FFF77DFF637950
:1068300056F82320002AECD104494FF00042DA40F8
:106840000B6823EA0203E3E7680E0020640E0020D1
:106850000B4B1B685A791B790A2B01D982420DD93F
:10686000EFF30583DBB21BB1064B01221A607047C0
:10687000054B4FF080525A60BFF36F8F704700BFD7
:10688000AC0E0020A80E002000ED00E008B5EFF3EC
:10689000108372B6094B0A4A1B880A4D1BB20024AA
:1068A00042F82340084A286813682146013B1360D8
:1068B000FFF792FF2C6000F083F900BF380F002033
:1068C000B40E0020AC0E0020B00E002010B5034620
:1068D000EFF3108472B6028902EA010022EA010293
:1068E0001A8184F3108810BD0C4A034610B5106855
:1068F000EFF3108472B6028913420CD103610721B1
:10690000FFF76AFF84F31088054B4FF080525A60FE
:10691000BFF36F8F10BD84F31088FBE7AC0E00202F
:1069200000ED00E038B5054B1D680446FFF7DCFFBD
:1069300021462846BDE83840FFF7C8BFAC0E00200E
:1069400010B50389027941EA0304072A038A048106
:1069500003D0082A0DD0002407E01C4005D00C21EC
:10696000FFF73AFF054B01221A60201E18BF0120D5
:1069700010BDA343EFD10124F1E700BFA80E002012
:1069800010B5EFF3108472B6038902791943072A10
:10699000038A018104D0082A13D084F310880FE001
:1069A0001942FAD00C21FFF717FF074B01221A609A
:1069B00084F31088054B4FF080525A60BFF36F8FFD
:1069C00010BD8B43E9D1EDE7A80E002000ED00E0FB
:1069D000EFF3108072B60B4B1B681A790A2A07D99D
:1069E0005A79094B53F8221011B1096843F8221063
:1069F00080F31088054B4FF080525A60BFF36F8FC1
:106A0000704700BFAC0E0020680E002000ED00E0D3
:106A100030B54C7901F10C020346006818B110F84A
:106A2000075CA542F8D9C8601A6030BD0F2A2DE96D
:106A3000F84316461F4628D810F003031EBF04393A
:106A4000C918C3F10402A1F1280118BF801831F060
:106A500003031AD4C418EFF3108972B6224A012531
:106A6000114652F8048FB8F1000F11D00135212DD5
:106A7000F7D189F310886FF08A0531E002212046B2
:106A8000FFF7AAFE89F310882AE06FF0150527E0CA
:106A90002DB2024641F82540DDE90801E58000F00D
:106AA0005BF8124A20604FF0FF33C4E908381368DE
:106AB000667101331360FB07C4E90388C4E90588E4
:106AC00084F80480C4F81C80D8D40C212046FFF739
:106AD00083FE7A07D6D489F310883046FFF7B8FED4
:106AE0002846BDE8F88300BFB40E0020B00E002099
:106AF0000C4B0D4A10B540219A600C4CE02283F8F3
:106B00002220D9770022A0180132302A80F8001301
:106B1000F9D11A6942F010021A615A6942F40072FE
:106B20005A6110BD00ED00E00060020000E100E0ED
:106B300070470000BFF34F8F0549064BCA6802F447
:106B4000E0621343CB60BFF34F8F00BFFDE700BF90
:106B500000ED00E00400FA051A4422F0030210B52B
:106B60004FF0773442F8044C540758BF4FF0883444
:106B7000A2F104035CBF42F8084CA2F108034FF0F5
:106B8000807243E902020D4A43F80C2C00200322D4
:106B900043E9052043F8201C01220224194643E959
:106BA00007246FF0020241F8242D0B2241F8042D36
:106BB000013A032AFAD1A3F1440010BD8D68020006
:106BC0000023E1EE103AEFF3148323F0040383F380
:106BD0001488BFF36F8FEFF3108362B6024B4FF050
:106BE00080525A60BFF36F8F00ED00E0114910B57D
:106BF0000C6872B6FFF7B6FD62B6A04208BF10BDC2
:106C00002146BDE8104049B1EFF309821EF0100F94
:106C100008BF22ED108A22E9F04F0A600068B0E850
:106C2000F04F1EF0100F08BFB0EC108A80F30988F7
:106C300070470000AC0E0020024B4FF080525A60AB
:106C4000704700BF00ED00E030BF62B6BFF36F8F4A
:106C500072B6704708B502490620FFF719FB00BF5E
:106C6000031F030008B502490720FFF711FB00BF0F
:106C70000F1F030008B502490520FFF709FB00BFFD
:106C8000221F030008B502490820FFF701FB00BFDF
:106C9000351F030008B502490920FFF7F9FA00BFC4
:106CA000471F030008B502490A20FFF7F1FA00BFA9
:106CB0005B1F030008B502490B20FFF7E9FA00BF8C
:106CC0006D1F030070477047174A08B5D2F8883027
:106CD00043F47003C2F88830FFF7F4FF134B1448F5
:106CE000DA1C121AC11E22F00302994288BF002248
:106CF00010490AF0B7FD104B1048DA1C121AC11ED9
:106D000022F00302994288BF002200210AF004FC0D
:106D1000FFF7D9FF00F082F8FFF774FA0AF054FB8E
:106D2000BDE80840FFF792BA00ED00E0AC02002099
:106D300000020020282A030084470020B00200201F
:106D400070470000EFF3108172B6094A13680133EF
:106D5000012B136009D14FF080420020C2F80001DE
:106D60001360D2F80031002BFBD081F310887047FC
:106D70003C0F0020EFF3108172B6064A1368013B06
:106D800013601BB94FF0804301225A6081F31088D1
:106D9000704700BF3C0F0020114A38B51378EBB99B
:106DA0004FF08044C4F81835C4F804310123A360BF
:106DB000D4F80431002BFBD001251570FFF7C2FF7A
:106DC0000023C4F80C314FF080422561D2F80C3119
:106DD000002BFBD0BDE83840FFF7CCBF38BD00BF6B
:106DE0003A0F00204FF0704393F8E02F062A12D19B
:106DF000D3F8E40F10F00F000DD1D3F8E82F02F014
:106E0000F002302A08D1D3F8EC3F13F0F00F0CBF9A
:106E100001200020704700207047000008B5FFF7F0
:106E2000E1FF30B1134AD2F8FC3023F08073C2F88E
:106E3000FC30FFF7D7FF20B14FF080430322C3F8A7
:106E4000A025FFF7CFFF30B14FF080430022C3F8F9
:106E50000C21C3F81021FFF773FF074B0122C3F881
:106E60004025FFF745FEFFF70BFABDE8084008F0A4
:106E7000B1BD00BF00ED00E000E00140044B1B6825
:106E80002BB1044B4FF080525A60BFF36F8F7047A5
:106E9000A80E002000ED00E008B5044A044B10687D
:106EA0001B689847BDE80840FFF7E8BF400F002087
:106EB000500F002008B5044A044B50685B6898479F
:106EC000BDE80840FFF7DABF400F0020500F002058
:106ED00008B5044A044B90689B689847BDE8084091
:106EE000FFF7CCBF400F0020500F002008B5044A28
:106EF000044BD068DB689847BDE80840FFF7BEBF89
:106F0000400F0020500F002006F093BC034600689D
:106F100038B10268904219BF1368036000211960FC
:106F200010467047EFF3108272B60B6833B90368EE
:106F30005BB11B680B60036819600160406882F3F5
:106F4000108820B10121FFF71BBD0960F5E77047EC
:106F500010B5EFF3108472B6FFF7D8FF84F31088F2
:106F600008B10023036010BD38B58569044685B1BA
:106F70000A4B1868436901330CD00AF033F82369CF
:106F80006A68C11A8A4226BF9B181B1A00236B60CD
:106F9000206138BD83685B689847F0E77829030073
:106FA0008369084A10B5044610682BB15A68214617
:106FB0000AF06DF8206110BD2146BDE810400AF0CE
:106FC0004AB800BF782903008369002210B504463F
:106FD0005A60A06930B1436823B90368A36163694B
:106FE0009847F6E72046BDE81040FFF7D9BF0000FC
:106FF00070B505460C46EFF3108672B6FFF7B4FF86
:1070000005F118000368BBB923600460AB69A342B3
:1070100006D10F4B6268186829460AF038F82861D3
:1070200086F310880B4B1B682BB10B4B4FF0805233
:107030005A60BFF36F8F70BD61685A68914203D385
:10704000891A61601846DDE7521A23605A60DCE74E
:1070500078290300A80E002000ED00E070B504467A
:107060000D46EFF3108672B6FFF77EFFA36904F1B9
:1070700018022BB92046FFF793FF86F3108870BDE6
:107080009D4202D01A461B68F3E72B681360002B61
:10709000F0D05A6869680A445A60EBE7034B4161D3
:1070A000C0E9023000238361704700BFC96F02004E
:1070B00038B1054B0A0901F00F019A5C5B5C027064
:1070C00043700220704700BFD6270300F8B50D4675
:1070D0005700064610B18C18A54201D13846F8BDBC
:1070E000304615F8011BFFF7E3FF0644F4E7F8B557
:1070F0000E465700054610B18C18B44201D13846EF
:10710000F8BD284614F8011DFFF7D2FF0544F4E747
:1071100003461A46013311780029FAD1101A704734
:1071200007B5042201910DEB0201FFF7E0FF03B068
:107130005DF804FB38B5064B1B6804460D4698689D
:107140000AF0EAFA29462046BDE8384008F046BE73
:107150004C02002007B5014601A8FFF7A9FF022154
:1071600001A8FFF7E7FF03B05DF804FB07B5014690
:107170006846FFF7D5FF08216846FFF7DBFF03B03D
:107180005DF804FB10B50446FFF7C2FF0146204638
:10719000BDE81040FFF7CEBF88B1E9B1002340EA57
:1071A0000102D2070DD5C2070FD5CA070FD58142FC
:1071B00022BF0A4601461046421A0AD199400846A3
:1071C0007047400849080133E9E74008EBE74A08FF
:1071D000014608461146E8E70146F0E72DE9F84385
:1071E0000C460646114620461546FFF7D5FF844259
:1071F00039D3B5FBF0F2B4FBF0F10025B1FA81F41C
:107200004FF0004EC4F120002EFA04FEC4F15F0CD2
:107210002B462C462F46DB1847EB070811EA0E0FCA
:1072200018BF43F00103934278F1000947464FEA43
:1072300044044FEA5E0E0FD39B1A68F1000744F036
:107240000104002C0BDA3B4300D00134C0F12003D1
:1072500033713460BDE8F883002CF2D10138013578
:107260006545D8D1EFE700200446EFE7F8B504897B
:1072700006460F46154600200DB1B54218D1328999
:107280007168002306F09EF804F13A030344B3F555
:10729000803F24BF013080B2796820443A30002317
:1072A0002022083180B206F08DF8C04380B2F8BDCC
:1072B00023462A89696806F085F8AB682D6823445F
:1072C0009CB2D9E72DE9F8430D46814603212846B3
:1072D00003F04EFE0646022103F04AFEB368032B7C
:1072E000074605D828460021BDE8F84303F05EBBF9
:1072F00001462A463046D6F80480FFF7B7FF00283B
:10730000F0D198F80040892C08D8842C0AD9B368A9
:1073100079684246484601F02DFB03E06334E4B24D
:10732000012CF4D998F800102B4640F201220320DA
:1073300002F022F90028D5D0BDE8F88338B50D4613
:10734000144600211A46032303F05EFC28B143686B
:1073500000221D705C709A70DA7038BD10B504465A
:1073600060B190F90C30032B0BD10268FFF77EFF60
:1073700050B1636840BA5880002010BD6FF00D0016
:10738000FBE76FF04C00F8E76FF00100F5E7002134
:1073900003F00CBB08B5044910220AF001FBB0FA57
:1073A00080F0400908BD00BF4228030010B50A491B
:1073B000082204460AF0F4FA48B12378FF2B08D1DA
:1073C000607800F00F00831E5842584110BD012024
:1073D000FCE70020FAE700BF3228030070B51E4624
:1073E000CBB2002115460246084602F0DBFF0446F8
:1073F00020B92846FFF7CBFF204670BD43681E71B9
:107400000560F9E738B50D460446D1E9003170B1A1
:10741000B0F972214A8000225BB9B4F8A0309342DF
:107420000BD228467A21BDE8384003F0BFBA0246A5
:10743000F0E799681B680A44EEE7204602F000FB7B
:1074400060B10B492B4640F20222012002F094F871
:1074500068B92846BDE83840FFF799BFB4F9720112
:1074600040F20222294602F07CF80028F1DD38BD06
:107470000000FFFF2DE9F8430E46D1E90014054650
:107480000A4600233AB95BBAA380A379FF2B10D137
:1074900029B93B230CE0906812680344F2E791F9A4
:1074A0000C30022B03D0032BF3D13A2300E0292325
:1074B000A371E37913B9D5B94023E37104F1080747
:1074C0003649102238460AF06BFA04F11809804652
:1074D00000BB4846FFF75EFF024658B11022414606
:1074E00038460AF019F80123E375344642E095F86E
:1074F0007031E2E74946284602F0A6FC0346002820
:10750000F3D000F1100253F8041B47F8041B934218
:10751000F9D1EAE7284602F0B8FA4846FFF73AFF01
:1075200098B10024284602F0B7FA002CDDD00321E0
:10753000304603F01DFD28B143681B7803F0FD03BE
:10754000852BD2D06FF07C001FE03946284602F030
:107550006BFC0028E5DB2844047D04F01F04103C8C
:1075600018BF0124DEE7206840B103F069FB90B149
:107570002060044694F90C30022BF4D031462046AA
:1075800003F007FA002802DB0020BDE8F883831C23
:1075900008BF0020F9E76FF00B00F6E75228030060
:1075A00080B58EB000230493A3F580330593B64BCA
:1075B000B6481B88ADF818300821FFF74FF804A92A
:1075C000022003F0A5F9B24F40F20523ADF80A30CE
:1075D00044F6BF7844F6D5746846FFF73CF8BDF82A
:1075E0000230A342F8D8434523D840F20222934206
:1075F00000F0D68031D840F201229342ECD1019EB6
:107600004FF0FF31304603F0B3FC054628B1436824
:10761000B3F9020002F02EFA054673683BB1B26876
:10762000272A04D91B7803F0F003602B21D03046C1
:107630002DE0A3F59F42403A92B20121914039409A
:1076400040F08281A34200F0848144F6D4729342D8
:10765000C2D1019801F040F8BCE7A3F20323012B4B
:10766000BAD86FF0850302A968460393FEF7CEFFF0
:10767000B0E7304603F0E4FA04460028D7D00222EF
:10768000282103F0FFFA0023237318B92046FFF7DF
:107690007EFE9FE7D0F8049099F8073023B9742153
:1076A000204603F083F995E7B9F8041099F80660CD
:1076B0008BB249BA89B20BB93B2EE7D18442A36899
:1076C00056D08B42204653D903F044FB09F11809E8
:1076D0004846FFF75FFE70B94846FFF767FE08B1FE
:1076E000002D54D1484602F08EFC0546B0FA80F0D9
:1076F00040090028CAD1292E4DD03A2E0CBF0323B1
:10770000002323733146022003F02BF9002801DC0B
:107710003A2E42D10121204603F0EEF94FF0010943
:107720005C4994F90C00234640F2012201F024FF49
:1077300010B92046FFF72BFEB9F1000F10D03A2EFA
:1077400003D10121204603F0D7F9234640F201225C
:107750003146022001F010FF10B92046FFF717FE56
:107760003A2E7FF437AF21462846FFF7ABFD31E7CD
:10777000002283681A4490F90C30022B02D0006872
:107780000028F6D1283A8A42A0D2162188E7484636
:1077900002F039FCAAE70223B3E74FF00009BFE784
:1077A000019E96F90C3001331AD17468B4F90200C5
:1077B00002F060F90546304694F8049003F040FA70
:1077C00009F03F09014600283FF431AF03F010F9FA
:1077D000064696F90C30022B06D01621304660E79B
:1077E0004FF000094D46F4E770682B49102218301D
:1077F0000AF0D6F80028F0D0304603F021FA04460B
:1078000000283FF414AF4668337EFF2B53D12DBBC5
:1078100002F023F900283FF439AF411E204603F05F
:107820006BF949F04009284602F015F90546002891
:107830003FF4D0AE204603F003FA064600283FF49A
:1078400025AF01462846FFF715FE002826DAB44288
:107850003FF41CAF3046FFF79AFD17E70146284674
:10786000FFF708FE0028FFF611AF002149F04003A2
:1078700022460846FFF7B2FD014600283FF4AAAEB3
:107880002846FFF7BFFDA5E6380F0020640F002053
:10789000EFFB06000000FFFF52280300002108460E
:1078A0004B463246FFF79AFD01460028BBD02846DA
:1078B000FFF7A8FDB7E71836304602F0A4FB854273
:1078C000824606D03046FFF771FD002818BF4FF002
:1078D000000A3046FFF75EFD10B9BAF1000F17D06D
:1078E00021465046FFF7C6FD0028FFF6CFAE2046E2
:1078F00003F096F800287FF4C9AE1849234640F2F9
:107900000122022001F038FE00287FF463AEBDE6BC
:1079100007AB22462946304600F044FF0028FFF618
:1079200059AEBDF83400C0F3041002F0A3F82146AC
:107930000546FFF79FFD0028FFF6A8AE9DF836101C
:107940004B4622460BA895E70198194601F0CEFA5E
:1079500040E6019800F0E6FE3CE600BF0000FFFFB5
:107960001FB50A4CB4F900305BB9094A0948CDE9A2
:107970000132094A00924FF470710422FFF756F861
:107980002080B4F9000004B010BD00BF600F0020DB
:107990007B1F0300A40F0020A1750200F8B50C4660
:1079A000174602232822002103F02EF9064608B3C9
:1079B000456805F10800FCB1214604F1100351F8B7
:1079C000042B40F8042B9942F9D105F11800C7B1F6
:1079D000394607F1100351F8042B40F8042B994263
:1079E000F9D1602200232A70FF226B70AB70EB701C
:1079F000AA71EB713046F8BD1022214609F08CFDCA
:107A0000E3E71022394609F087FD012385F8273086
:107A1000E7E7000070B5044615460E4609B9002098
:107A200070BDD1F8A430DB04F9D51749082209F05C
:107A3000B7FF38B12378FF2BF1D1637803F00F0340
:107A4000022BECD196F8710105F1100204F1080146
:107A500005F07EFE10F0FF00E1D0A8762B4604F181
:107A6000100254F8041B43F8041B9442F9D1B6F8F1
:107A700072311B0103F4F87343F4806343F006038F
:107A80002B830120CCE700BF322803002DE9F84307
:107A9000054602F0B8FA044600284DD001F0F5FF83
:107AA000B4F97211002000F01DFB98B10368043393
:107AB00018462A46214600F0F0F82946204602F0F2
:107AC000B3F921180B7D03F01F02102A0CD14EF6DA
:107AD000602812E084F89C00204601F0C1F920469D
:107AE000BDE8F84301F0D8BF03F00702013A012ACC
:107AF000F5D80133D4F898800B75050105F17806A7
:107B00000E4B0F48B3F9009026443146FFF7A6FA12
:107B100005F1160760190023C0E91E38274444F612
:107B2000CF73A0F88230C0F88470A0F880903146FE
:107B30000348FFF75DFAD2E7BDE8F883600F002045
:107B4000641300202DE9F3471F46D0F8A4300C46FB
:107B5000D904054603D4042002B0BDE8F087797843
:107B60000229F8D11278882AF5D1DB07F3D590F8ED
:107B7000CC206B4600F1C40101F043FD0828EAD196
:107B8000DDE90002B968FB689A4208BF8842E2D189
:107B9000BB78012B41D0022B45D0CBBB04F118019F
:107BA0002846FE8802F040F9041E1FFA86F8D2DB50
:107BB000B8F5807F2ED076BAB6B24EF660235E431B
:107BC000A6F56A46603E2A192401137D214823F058
:107BD0001F0343F0100304F178081375A8441E4BEB
:107BE0004146B3F900A004F11609FFF737FA281946
:107BF0000023C0E91E36A94444F6CF73A0F88230B2
:107C0000C0F88490A0F880A041461248FFF7F0F930
:107C1000B878A1E747F23056D5E704F118012846B5
:107C200002F0B2FAF4E7B5F9721104F1080000F0BD
:107C300059FA00F01FFA002000F03EFA28B985F842
:107C40009C00284601F00CF9E2E704F11800FFF768
:107C50001DFFDDE764130020600F002013B58A7854
:107C60004878412A34BF02230323984212D1CC889A
:107C7000C87864BAC0F30013A4B200930831234655
:107C800000F00F0003F0FAF94EF6602303FB04F056
:107C900002B010BD4FF0FF30FAE7F0B5074685B0EF
:107CA0000C461546B1F9721100201E4600F01AFA72
:107CB00045B3D4F8A430DA0424D518B30068B4F975
:107CC0007221838EC3F304139A421BD131460430D0
:107CD00005F0A3FBB0B1D4F8A430DB0710D594F8BD
:107CE000CC2002AB04F1C401204601F08AFC082834
:107CF00006D1002302AA0F21184604F003FF10B991
:107D000005B0F0BD0020009033462A462146384693
:107D100001F0FCFAF4E72DE9F04101F1080705460E
:107D2000B0F9721138461646984600F0A7F8044696
:107D300028B190F8363013F0010F08BF002495F8F1
:107D40007101414605F013FD00281ADB74B9B5F93D
:107D500072110322384600F0DDF8044688B133780A
:107D6000872B02BF838E23F00803838694F8363076
:107D7000DB0706D53378862B05D1A38E43F00803A5
:107D8000A386BDE8F081872BFBD0A38E23F00803E8
:107D9000F6E730F9081FFEF7E5BB0000054A10685A
:107DA00038B10368984219BF1A6802600021116057
:107DB000184670475415002090F8361011B9382233
:107DC00009F0AABB704770B5044610460E4615462A
:107DD000FFF7F2FF4CB123462A1D04F1100153F8BE
:107DE000040B42F8040B8B42F9D1AB8E66F30813F7
:107DF000AB8670BD08B50B1D20B11946BDE8084023
:107E000005F00BBB04491022184609F0C9FDB0FA71
:107E100080F0400908BD00BF522803000149024814
:107E2000FFF73CB9937D0200641300200148FEF780
:107E300071BA00BF801300200148FEF76EBA00BF80
:107E40008013002070B50C4DAB8EC3F30413994220
:107E500006460C460AD12946FFF7CCFF30B1304622
:107E6000054A2146FFF7AFFF034870BD95F836304D
:107E7000002BF4D00020F8E71C15002008B50B4BB0
:107E800093F8362042B19B8E13F4F87FC3F30412AB
:107E900004D019B1914201D0002008BD0146044828
:107EA00005F0BBFA0028F7D00048F6E71C150020C3
:107EB0002015002010B590F8363023F0010300F1B2
:107EC000240180F8363004461048FFF7C7F81049FF
:107ED0000A6822B113689C4206D1FFF75FFF204673
:107EE000BDE81040FFF768BF13461B68186884425E
:107EF00002D09A42F9D1F2E7002BF0D022681A6042
:107F00000A68944208BF0B60E9E700BF64130020D1
:107F1000541500202DE9F8430746884602F007056E
:107F2000FFF790FF002839D1FFF738FF814660B393
:107F3000284E044694F83630012B29D8A38E03F43A
:107F4000C0632BBB2046FFF7B5FF384622464146AB
:107F5000FFF739FFA38E2B43A386012384F8363025
:107F600020463368B3B11B68236033681C603460FB
:107F700060B9FFF713FF81450446DBD133685BB17D
:107F80001B6803603368186034600020BDE8F88324
:107F90000020E6E72460EAE72060F5E790F8363055
:107FA000DA0708D4828E22F00702154343F001035A
:107FB000858680F836300368002BE7D1054B1A68B8
:107FC0002AB1126802601A6810601860DEE700606B
:107FD000FBE700BF5415002038B50A460C4605469D
:107FE000031D00F1140153F8040B42F8040B8B42FB
:107FF000F9D1A88E2083C0F3041001F03BFD04F1F9
:10800000100290F8710105F10C0105F0A1FB0028A8
:10801000A8BFA07638BD0000F8B5154E34680746F5
:108020000D4694B1A38EC3F3041399420BD1211DC5
:1080300005F0F3F938B194F8363043F0080384F8CA
:1080400036300B48F8BD0020FCE7FFF7FBFE024688
:1080500030600028F7D029463846FFF7B4FE326872
:1080600092F8363043F0080382F83630E9E700BF73
:1080700088130020036810B504468BB1011D0C481D
:10808000FEF7ECFF206890F8363023F0080380F804
:108090003630FFF791FE14220021204609F03CFA09
:1080A000044B1A68A24204BF00221A6010BD00BF30
:1080B000641300205815002028B11430074A90425C
:1080C00003D3002070470648F8E703681BB193F814
:1080D0003630002BF6D11430F1E700BF9C1300209E
:1080E0008813002008B5094B1B686BB121B19A8E2B
:1080F000C2F30412914207D108B9044808BD191D02
:1081000005F08BF90028F8D10020F7E7881300204C
:1081100010B5124C2168B1B10B689B8E03F00703B8
:10812000013B012B0DD80020FFF7C6FF68B90846B8
:10813000FFF7C2FF01B110B90020FFF7BDFF2060BB
:108140000146084610BD0846EEE703689B8E03F023
:108150000703013B012BF2D8E6E700BF58150020CA
:1081600038B50D46044610220021284609F0D4F9FE
:10817000124A12680023A24285F8203009D1DCB1EE
:1081800023689B8E03F00703013B012B94BF002360
:10819000012385F82130236805F110011A1D1433DD
:1081A00052F8040B41F8040B9A42F9D123689B8ED4
:1081B000C3F304136B8438BD2346EAE75815002047
:1081C0002DE9F74F4FF0000A3A4E019205468846D6
:1081D0001F46544696F82420D6F800B0DAB9002C91
:1081E00008BF34460AF1010ABAF1080F06F1300659
:1081F000F0D174B12368002B46D141462846FFF7E1
:1082000021FE0146206000283ED13022204609F0A0
:1082100083F9002424E096F82520BA42E2D101999E
:10822000301D05F010F9B842DCD3BBF83420C2F39E
:1082300004129045D6D10BF104091F49102248467B
:1082400009F0AEFB80B9B5B9302202FB0AF3194A36
:10825000D25892F8363043F0400382F83630344634
:10826000204603B0BDE8F08F59462846FFF7C2FD0F
:108270000028B7D0E7E705F1100255F8041B49F8CC
:10828000041B9542F9D1DFE7226841462846FFF7F3
:108290009AFD2046FFB250F8042B019992F836302F
:1082A00043F0400382F836303A4605F0EBF884F8A4
:1082B0002570D5E79C1300205228030010B590F8D4
:1082C00024300446FBB90068D0B920463022BDE80E
:1082D0001040002109F020B93033013A04D09C420B
:1082E000FAD019688842F7D1074A9342EDD390F843
:1082F000363023F0400380F83630FFF75DFDE4E7C9
:10830000024B0922E9E710BD1C1500209C13002038
:1083100028B13030064B984203D3002070470548FF
:10832000F8E790F82420002AF8D13030F3E700BFB6
:108330001C1500209C13002030B40B46021D00F1D8
:10834000140452F8045B41F8045BA242F9D190F89E
:10835000252083F82020002183F821100268948EC4
:10836000C4F304145C8490F82400042803F1100082
:1083700003D130BC102209F0CFB8131D143253F8CA
:10838000041B40F8041B9342F9D130BC7047000035
:108390002DE9F843194D002480461646274605F579
:1083A000C07995F824305BB14146281D05F04BF8A3
:1083B000B84205D995F8253083429CBF07462C4624
:1083C00030354D45EDD134B194F82430042B0FD124
:1083D000E38CDB070CD4FFF79BFE18B944B96FF0B0
:1083E000710003E03146FFF7BBFE0020BDE8F883D3
:1083F00031462046FFF7A0FFF7E700BF9C1300209F
:1084000010B5044600F114010648FEF727FE94F863
:10841000243023F0040384F824302046BDE81040C3
:10842000FFF74CBF641300202DE9F843044600F128
:1084300014011748FEF712FE2368988EC0F304104B
:1084400001F018FB0546D8B100F1160604F1040945
:108450004946304694F8257004F0F5FF05F12608EA
:1084600087424946404694BF94F82570002604F0A0
:10847000EAFF874209D91EB13146284601F084FE41
:108480002046BDE8F843FFF7BBBF4646F4E700BF10
:10849000641300202DE9F8431F4613460A4601469F
:1084A0000020089EFFF78CFE0446002839D090F883
:1084B000243007EA060543F0040380F82430681CE2
:1084C00036D01D4B1868436901332DD008F08AFD62
:1084D000711C05461CD0194B1948B3F9009004F1E2
:1084E00014084146FEF7BAFD0023C4E9053644F6F8
:1084F000CC731348E3832462A4F81C904146FEF732
:1085000077FDB21C04D07319013308BF01362E4425
:10851000FB1C0FD87B19013308BF01373D44C4E968
:108520000A562046BDE8F88383685B689847CFE722
:108530002E46F4E73D46F2E778290300600F00205D
:108540006413002010B50A4B9B690246002013B942
:108550004FF0FF3010BD5C6820445C898C4204D130
:10856000002AF7D0DC689442F4D01B68EFE700BF24
:108570006413002010B50A490822044609F010FAD5
:1085800048B12378FF2B08D1607800F00F00831EDC
:108590005842584110BD0120FCE70020FAE700BF17
:1085A00032280300002102F001BA08B5FFF766FC8B
:1085B00028B190F8363013F0010F08BF002008BD35
:1085C000F8B50446174606981A460D46A9B191F823
:1085D00071310A2B11D1134604F1100154F8040B28
:1085E00043F8040B8C42F9D1B5F872311B011383A7
:1085F0000023937601263046F8BD78B929462046F7
:10860000FFF708FA06460028F4D1D5F8A41011F4B3
:10861000805107D03846FFF7C5FFECE71146FFF75A
:10862000DBFCE7E70DB1B5F9721102222046FFF736
:1086300071FC0028EED0002FDDD07621384602F004
:10864000B5F9D8E738B505685DB195F836301B0740
:1086500007D5FFF70FFD00242046FFF759FE04461B
:1086600000B938BD23689D42F6D1FFF727FEF3E736
:108670002DE9F843DFF834801F460B4B14460546BE
:108680000E4640461146B3F90090FEF7E7FC002382
:10869000C4E900376681E560A4F8089021464046A9
:1086A000BDE8F843FEF7A4BC600F0020641300206F
:1086B00038B5084CFFF7BAFBA16929B10D6820460F
:1086C000FEF7CCFC2946F8E7FFF7A8FBBDE83840E9
:1086D000FFF7B2BB6413002038B50446002501F053
:1086E000D4F90E49A4F89C50204601F0A3FC402286
:1086F00020460B4900F020FD4FF47A71284607F020
:10870000D9F904F16802034644F6C3712046FFF725
:10871000AFFF2046BDE8384001F0BEB91228030083
:108720003228030038B5044604F1160501F0ADF90E
:108730000F4804F16801FEF791FC2846FFF71AFF85
:1087400018B12946204601F01FFD04F126052846F0
:10875000FFF710FF18B12946204601F015FD20460D
:10876000044901F0BDFC2046BDE8384001F094B951
:10877000641300201228030010B5044601F085F9A7
:108780004FF47A73C4F8983094F89E3043F00103A4
:10879000204684F89E3000F052FF2046BDE810408D
:1087A00001F07AB92DE9F0470C468CB00546084631
:1087B00017469A4601F069F9FFF738FB002C3ED0C6
:1087C000B4F972112846FFF7F0FE0646002838D0AB
:1087D000B0F83480C8F304182846FFF7CBFE002811
:1087E0005FD1B8F1000F5CD0204601F055F940464A
:1087F00001F040F90446FFF71FFB204601F045F960
:10880000FFF714FB002C4ED0B4F972112846FFF785
:10881000CCFE0646009653463A4621462846FFF7C8
:10882000CFFE00280CBF6FF075060026FFF704FB93
:10883000204601F031F930460CB0BDE8F087214602
:10884000C0E72846FFF796FEB0460028C4D1B146DF
:108850004846FFF75DFD814678B9B8F1000F2CD08E
:1088600098F824305A0728D5B8F82630DB0724D5E5
:10887000D8F80030B3F83480ACE709F10401284699
:1088800004F0E1FD99F825309842E1D3B8F1000FEA
:1088900005D098F825209A4238BFC846D8E7C84680
:1088A000D6E7002CB6D11FB96FF075060024BDE7DE
:1088B0007621384602F07AF8F6E703AA39462846C8
:1088C000FFF766FD2A490646102207A809F068F856
:1088D00000284AD12846FFF74DFEB8B91FB17221D2
:1088E000384602F063F86FF071069FE7B4F9722121
:1088F0009A4208D0204601F0CFF8B4F97221BDF8B1
:108900002E309A4213D1B4F972111FE0002EE5DB2C
:1089100007AA05F1100C28686968134603C30835D7
:1089200065451A46F7D1BDF82E30002CDED1BDF9D1
:108930002E0001F09FF80446FFF77EFA204601F072
:10894000A4F8FFF773FA002CDDD1214607A8FFF742
:108950002CFE534600903A46214607A8FFF730FE0A
:10896000002808BF6FF0750660E7002EDBDAB5E778
:10897000522803002DE9F04F154689B09846044669
:108980000F4601F082F8FFF751FA2B78872B00F0A1
:108990005481882B00F01F82862B40F0AB8107F1B9
:1089A00008094846FFF7E6FD002800F0A381FB799F
:1089B000FF2B40F09F816B78002B40F09B81B8F13A
:1089C0000F0F40F29781D4F8A430DA0407D4EB8873
:1089D0005BBA9BB242F22832934200F28B81A8F13B
:1089E000100B05F1100632465B46002B59D1B5F845
:1089F0000680B4F972111FFA88F34846002B5CD048
:108A0000FFF70AFB8146002800F0748198FA98F875
:108A10004FF47A731FFA88F803FB08F84346021DE7
:108A200044F6CD71FFF724FE2B790BB184F8703139
:108A3000EB6813B11BBAC4F89830B9F1000F13D02A
:108A4000D4F8A430DB040FD5237D13F0EF0F03D04F
:108A500004F11600FFF71AF8637D13F0EF0F03D04F
:108A600004F12600FFF712F8BBF1000F2FD1B9F186
:108A7000000F00F03F8104F16805A2482946FEF787
:108A8000EDFAD4F8A430DE0440F134814FEA9803C3
:108A900003EB43032A4644F6C3712046FFF7E8FD83
:108AA00028E19845C0F026815178002900F0228104
:108AB000A3EBC10302EBC10297E7FFF713FB08B179
:108AC000FFF7C0FD4FF0FF384FF00009ACE73378F7
:108AD000052B1BD009D8012B11D0032B24D0737880
:108AE000ABEBC30B06EBC306BEE7222BF7D1314637
:108AF0002846FFF7B3F8804528BF8046EFE73346A6
:108B00002A4639462046FFF706F9E8E77378012B35
:108B1000E5D12B78862BE2D173681BBAB3F5A06F31
:108B2000DDD3A4F8A030DAE773680493B368059343
:108B30007378042B05D04FF0FF33984528BF984633
:108B4000CDE72B78862BF6D106F110031846029359
:108B5000FFF710FD0028EED1049B059A1BBA92FA8C
:108B600082FA5345E7D3D4F8A410F278C80401D5AB
:108B70001106E0D4500606D5B27802990393204638
:108B800000F0DAFA039BF2783F2AD4D9B278039244
:108B90007268E2B9924613E09AF8243059070FD56B
:108BA0009AF82530039A93420AD102990AF10400F7
:108BB00004F049FC039B984202D35046FFF734FC73
:108BC0005046FFF7A5FB82460028E5D1B3E7049A9B
:108BD000013207D04C4A93429ABF4FF47A72534302
:108BE0006FF00103059A013208D0474A92459ABFB7
:108BF0004FF47A7202FB0AFA6FF0010ACDF800A076
:108C0000DDE90212B4F972010493FFF743FC002876
:108C100091D096F90320F178049B002ABEBFC28C44
:108C200042F00102C2844A0642BFC28C42F00202F4
:108C3000C284534528BF53467FE7FB79FF2B59D1A8
:108C40006B78002B56D1B8F1170F53D92B7AFF2B25
:108C500050D007F108092D491022484608F0A0FE1F
:108C600038B92B490D2207F1180008F099FE0028A9
:108C700040D105F1080B5946204601F0D5F8031EF6
:108C8000029337DBA8F1180605F1180A524633465D
:108C900073B91E4903931022484608F081FE039BD6
:108CA00078B900934A462146584600F07FFB21E000
:108CB00098451FD35178E9B1A3EBC10302EBC10280
:108CC000E6E7D4F8A430D80705D4B4F9721103222A
:108CD0004846FFF71FF9EEB9029B23441B7D990616
:108CE00072D5B4F972115846FFF75FFC054610BB08
:108CF000FFF758FCFFF7A0F8204609B0BDE8F04F99
:108D000000F0CABE641300203789410052280300D6
:108D1000222803009AF80030012B05D153462A4639
:108D200039462046FEF7F7FF9AF80130A6EBC30656
:108D30000AEBC30ACFE73B7EFF2B1FD194F8CC7020
:108D400004F1C4013A4606A808F08CFDB7B13246DA
:108D5000394606A800F0D6FA06460028C8D04021B9
:108D60003246584600F07AFA074648B14A46002192
:108D7000FEF714FE804628B93846B9E76021EFE7D0
:108D80003046B5E74368FF22DA7100231A461946D8
:108D9000184601F007FB064608B94046A8E74268B6
:108DA0007CB9234653804FF47A71C6F800800020C6
:108DB00006F080FE05F12402034644F6C2713046F7
:108DC0006CE6B4F97231EDE73B7E0096A3F1FF0249
:108DD0005342534166E7FB79FF2B8BD16B78002B15
:108DE00088D1B8F1170F85D92B7AFF2B82D03B7E23
:108DF000FF2B03D12B795B063FF57CAFA8F1180957
:108E000005F1180632464B46F3B9B4F9721105F173
:108E10000800FFF7CAFB804600283FF46BAFB9F1AA
:108E2000000F3FF467AF3378212B07D1CDE90068FD
:108E300033462A4639462046FEF784FE7378A9EB6E
:108E4000C30906EBC306EAE79845FFF453AF517830
:108E500000293FF44FAFA3EBC10302EBC102D3E7FC
:108E600038B5044600F011FE44F6C3712046FFF702
:108E700069FBD4F8A430DA0423D594F89C30022B93
:108E800042F210750AD9033B4FF47A6202FA03F3F7
:108E90001D444EF660239D4228BF1D46A8420BD9B3
:108EA0001149204600F0FAFA94F89C30092B0BD9AE
:108EB000D4F8A430DB040DD42046BDE8384000F0DF
:108EC000EBBD4FF47A65E9E70133DBB2022B84F89E
:108ED0009C30EDD82B4604F1680244F6C37120465D
:108EE000FFF7C6FBE8E700BF02280300F8B50D4610
:108EF0000446FEF79BFFA5F59F4142390D2914D882
:108F0000DFE801F0071713131313131313131B696F
:108F1000136D3549234640F20222022000F02CFB5B
:108F200018B90921204601F041FDBDE8F840FEF7DF
:108F300083BF2046FFF794FFF7E72368988EC0F3BE
:108F4000041000F097FD05460028EED0274B186866
:108F5000436901330FD008F045F80646284600F073
:108F600094FDA36AB3420AD82046FFF75DFA28466B
:108F700000F092FDD9E783685B689847EDE7E36A04
:108F8000B342F4D8271D394605F1160004F05BFA08
:108F900094F8253083429FBF2B7D23F01F0343F0BD
:108FA00008032B75394605F1260004F04CFA94F8B5
:108FB000253083429FBF6B7D23F01F0343F00803DE
:108FC0006B75A36A04F114029B1B44F6CC71204616
:108FD000FFF74EFBCBE72046FFF734FBA5E7204623
:108FE000FEF754FDA1E700BF0000FFFF7829030052
:108FF0002DE9F04387B016460C46102200210546A5
:1090000002A81F46DDF8389008F086FA802EB04698
:1090100028BF4FF080085FFA88F2214602A804F0CA
:1090200031FA2549102202A808F0BAFC00283FD0E6
:1090300022490822204608F0B3FC002838D02378C3
:10904000FF2B35D0B94533D8FEF7F0FE2146CDF8D9
:1090500000903B4642462846FFF71CFA044630B9CA
:10906000FEF7EAFE6FF00B0007B0BDE8F08328B210
:1090700000F000FD054618B9FEF7DEFE0020F3E71C
:1090800000F003FDD5F8A430DA045EBFE38C43F0B2
:109090000103E38495F89E30DB0705D57F2E9EBF44
:1090A000E38C43F00203E384284600F0F5FCE3E799
:1090B0006FF01500D8E700BF5228030032280300E4
:1090C0002DE9F0410C6807460E461546FEF7AEFE48
:1090D0002046FFF71DF9044630B3D4F80080B8F1FC
:1090E000000FF5D094F824305B07F1D52FB1B8F814
:1090F0003430C3F304139F42EAD194F825302B7423
:1091000010220021284608F007FA94F82520211D96
:10911000284604F0B7F9B8F83430C3F304136B826F
:10912000A36A6B61E36AAB61FEF786FE201E3460C2
:1091300018BF0120BDE8F081F0B5044685B00E46A9
:10914000174600211022684608F0E6F9D4F8A4304A
:10915000D90406D4B4F97211234804F0D3FE05B043
:10916000F0BDDA07FBD594F8CC2002AB04F1C401C2
:10917000204600F0C0FA0028F1DB3A463146684646
:1091800004F080F96946204600F04EFE051E29DAFB
:1091900007233A466946204600F0C4FD051EDEDB83
:1091A0000127D4F8A430DB04D9D510490822304671
:1091B00008F0F6FB38B13378FF2B0BD1737803F04E
:1091C0000F03022B06D16219137D23F01F0343F016
:1091D00010031375002FC2D004EB05101630FEF7F4
:1091E00055FCBCE70027DCE7801F030032280300A2
:1091F00038B504461846FEF7D1FB054668B143680A
:10920000FF22DA7100231A461946184601F0CAF8FF
:1092100028B92946284601F0EBFB002038BD4368F9
:109220000CB1B4F972415C800560F7E710B5182302
:109230000446002208468721FEF780F868B143689B
:10924000216800221A715A719A71DA716268DA60C3
:109250009960A168E2685A61196110BD38B5044689
:109260000D461046182300228821FEF767F878B1D2
:109270004368002225F01F051D71DA719A715A7139
:1092800021686268DA609960A168E2685A611961D0
:1092900038BD08B5002208238521FEF74FF828B114
:1092A000436800221A715A719A71DA7108BD10B5BB
:1092B000002304461046CA1D02F0F802194601F0C8
:1092C000A3FC20B1426814708368DB08537010BDA2
:1092D00070B506460D4618460231FFF7E8FF044612
:1092E00058B1436882680233023A0021184608F0F8
:1092F00013F92A46314608F0B5FA204670BD01231D
:10930000FFF7E6BF0223FFF7E3BF00002DE9F743B5
:109310000746154608460A9C0E46984600F0B5FBDF
:1093200035B92A463946304600F08EFD0546B8B1BB
:109330001C491022284608F033FB88B196F8CC90DF
:1093400006F1C4014A46684608F08CFAB9F1000FEC
:1093500006D0224649466846FFF7D1FFE8B10446E9
:1093600038462146FFF762FF0746B0B10346424642
:1093700029463046FFF73CFF044668B103460A49D8
:1093800040F20222022000F0F7F830B1304600F03F
:1093900083FB03B0BDE8F0833C460021204601F08A
:1093A00005FBF3E7522803000000FFFF2DE9F0431F
:1093B00087B00E4680460846154699460E9C00F03A
:1093C00064FB4146304600F02FFD071E5BDB304951
:1093D0001022284608F0E4FA28BB2E4B02AD03F118
:1093E000100C186859682A4603C2083363451546AD
:1093F000F7D1002596F8CC9006F1C4014A4668469C
:1094000008F030FAB9F1000F3AD0224649466846D2
:10941000FFF778FFB8B337443B7D9B0601D445F096
:10942000200504460FE02A4602AB05F1100C106837
:1094300051681D4603C5083262452B46F7D14025C9
:10944000B9F1000FD6D1294622464046FFF706FF64
:109450000546C0B1034602AA00213046FFF7C8FE08
:10946000044678B103460C4940F20222022000F083
:1094700083F840B1304600F00FFB07B0BDE8F08341
:109480002046CEE72C460021204601F08FFAF1E776
:1094900052280300122803000000FFFF224B2DE991
:1094A000F341002914BF88469846054600F0EDFABE
:1094B00000224146284600F0C7FC0746A0B195F8B7
:1094C000CC4005F1C4012246684608F0CBF964B1EE
:1094D000214600226846FFF712FF044628B9002102
:1094E000204601F063FA17E004462046FFF7D1FE5C
:1094F00006460028F3D00346424639462846FFF781
:1095000077FE044670B10346084940F20222022069
:1095100000F032F80028E2D0284602B0BDE8F04161
:1095200000F0BABA3446DAE7022803000000FFFF71
:1095300000B589B006930A9BADF81C30BDF82C30FD
:109540008DF81410ADF81620ADF80630024605ABC4
:1095500003A901A80293FDF73BF8049809B05DF850
:1095600004FB07B5019101466846ADF80220FDF7FE
:1095700013F803B05DF804FB2DE9F041044688467A
:1095800017461E4601F08EF94146204601F0E9F9E2
:10959000054648B14146204601F0DEF9691E044601
:1095A000304601F0A9FA24B901F098F92846BDE83F
:1095B000F0813146B4F908003A46FFF7D2FF011EA8
:1095C00002DA304601F0F2F9204601F0DCF90446F7
:1095D000E9E713B590F87131043B012B0FD880688F
:1095E00003680DF106025C6905210223A047BDF85E
:1095F0000630082B0CBF0320022002B010BD022051
:10960000FBE730B41D46D0F8A430DB07044612D582
:1096100090F8710104280AD1022A08D1A0680368D1
:109620005C692A46A446082330BC032160472B46C8
:1096300030BC04F03AB86FF0850030BC70471FB5FD
:1096400090F87131052B044616D0082B14D0042B4A
:1096500018D10823ADF802300023019303930523AA
:109660008DF804300DF1020302930223ADF80C30A3
:10967000436801A91B699847D4F8A43043F4805388
:10968000C4F8A43004B010BD37B504468068036840
:109690005D6994F87131043B072B1ED8DFE803F0B5
:1096A000041D041D04041D0AD4F8A43043F480737F
:1096B000C4F8A43002230DF106021121A8474FF48B
:1096C000A063A4F8A030BDF80630B3F5A06F28BFA2
:1096D0000023A4F8CE3003B030BD02230DF1060202
:1096E0001121A8470028ACBFBDF806304FF6FF7324
:1096F000A4F8A030EFE710B4D0F8A440E40705D5F3
:1097000090F871015DF8044B03F0DFBF6FF0850046
:109710005DF8044B70471FB500240394ADF80C307E
:10972000436801941B698DF80410029201A99847BF
:1097300004B010BD50F8A80C03681B69184700005E
:1097400008B50449102208F02BF9B0FA80F040095E
:1097500008BD00BF5228030010B50A49082204467C
:1097600008F01EF948B12378FF2B08D1607800F08B
:109770000F00831E5842584110BD0120FCE7002015
:10978000FAE700BF3228030070B585680446FFF78A
:1097900020FF2B6801465E6904F1C40208232846B5
:1097A000B04710F1860F09D0D4F8A430002843F058
:1097B0000103C4F8A430C8BF84F8CC0070BDF8B56C
:1097C000044608460E461546FFF7BAFF98B95DB144
:1097D00004F1360503270024314605EB041003F09D
:1097E0001CFE28B12046F8BD04F116050227F2E759
:1097F0000134BC42F0D14FF0FF30F4E770B50646BB
:109800000D4662B101F00AF804467CB1084804F044
:10981000A5FB28460C21BDE8704001F0C7B800F058
:10982000C9FF0446304600F0DDFFEEE770BD00BF23
:10983000FF1F03000378FF2B10B5044603D14078C7
:1098400000F00F0010BDFFF787FF60B9208840BA15
:1098500020F03F000004000C4FF6C06398420CBF9C
:1098600005200E20EEE70220ECE70000D0F8C03023
:1098700070B504460D46164633B132462946204699
:10988000BDE87040FFF7BABF62B9D0F8D4304BB131
:1098900000F02AF82946204600F08CFF08B3114852
:1098A00004F05CFB636829465B6820469847011E0C
:1098B0000BD008DA11F1100FDFD049422846BDE87D
:1098C000704001F073B80021F8E7C4F8C0500DB142
:1098D0002D68FCE72EB1D4F8A43043F40033C4F86B
:1098E000A43070BD33200300D0F8D43010B5044646
:1098F0007BB11A685968C0F8D42000221A605A60F7
:1099000039B10122FFF7B2FF2046BDE8104000F058
:1099100069BF10BD37B5846841B904F1B00104F1E5
:10992000A80003B0BDE83040FDF7FCBA042902D11D
:1099300004F1B801F3E7052905D006290DD0022965
:109940000DD003B030BD134BCDE90034124B684647
:10995000B3F90010FCF70AFEF3E7104BF4E7636875
:1099600020469B68984705462046FFF7BDFF002D1F
:10997000E7D00B4995F90C002B4640F20122FFF786
:10998000FBFD01460028DCD1284603B0BDE830408D
:1099900001F00CB80000D44F600F00200000D54F3C
:1099A0000000FFFF38B5A0F1B8040021A0680368EB
:1099B0005B689847D4F8A4200346002122F40035C0
:1099C000002BD4F8C000C4F8A450C4F8C01003DAC7
:1099D00013F1100F04D05942BDE8384000F0E6BF43
:1099E0000146C2F340422046BDE83840FFF706BFBB
:1099F000F0B589B01F46109B436000240F9B836025
:109A0000C0E90344CDE905040D4606A80121164628
:109A1000FCF730FE0E9B029305AB0193074B0093BE
:109A20003A46234631462846FDF700F8012106A8AC
:109A3000FCF720FE079809B0F0BD00BFA99A02000C
:109A400090F871310B2B9DBF4FF43760D84000F078
:109A500001000020704704F089BD10B500242046A5
:109A6000FFF7F9FF08B9204610BD4368002BF7D077
:109A70000134F5E710B504460020FFF7ECFF18B1FC
:109A8000B0F97231A342F8D110BD20B1436813B1CF
:109A90000C30FCF73FBC704720B1436813B10C3069
:109AA000FCF73BBC704700002DE9FF410468DFF87C
:109AB00014810546002640F205232046CDE90066C4
:109AC000ADF80230FFF7E1FFB8F80030A4F87231CA
:109AD000384BC4F8B430384BC4F8BC30374B1B6833
:109AE000C4F8AC30102104F1F000C4F8A860FCF711
:109AF000B5FD636820461B689847A860281DFCF7E1
:109B0000EDFDAA68B24204F1A80748DB2046FFF742
:109B1000C3FF41F233263846FDF71AFA054648B925
:109B200002A8FCF795FD002809DC48F20100FCF7CB
:109B3000F9FEF0E76B68002BEDD09847EBE7BDF836
:109B40000A30B3F5017F27D00FD840F202229342AA
:109B500011D040F20322934213D063685B69002B5B
:109B6000D9D002A920469847D5E7B342F5D120467F
:109B7000FFF7BAFECFE703992A462046FFF776FEA5
:109B8000C9E763681B6903992046984769460190B5
:109B900002A8FCF73BFDBEE76368DB68F3E7B8F8B3
:109BA0000010074809B204F0ADF9304604B0BDE832
:109BB000F08100BF35970200A5990200AC0E00208D
:109BC0006B200300380F00202DE9F8430E460546B0
:109BD000FFF75BFF3378112B0CD8062B0FD9073B0F
:109BE0000A2B0CD8DFE803F01B7F200B4A610B0B1C
:109BF0000B0B8D00402B0BD0412B00F08B80A86805
:109C00007268036831785C693389A04704462FE0A5
:109C10002846FFF715FF73681870012428E0736861
:109C200095F870211A70F8E73489736804B32C7DB5
:109C30008CB105F11602194605F1260052F8044BC5
:109C400041F8044B8242F9D13289102A03F1100302
:109C50004FF010040CD96A7D52B105F1260205F1CE
:109C6000360152F8040B43F8040B8A42F9D1103440
:109C70002846FFF711FF2046BDE8F883726805F11A
:109C8000130305F1150000243189A142F0DD834260
:109C900003D114F1860FB2D0EAE713F8011F0029AF
:109CA000F2D002F8011B0134EEE7D6F8048005F18A
:109CB000360705F1660900243389A342D8DDB9458A
:109CC000D6D03846FFF73CFD07F1100348B94246AD
:109CD00057F8041B42F8041B9F42F9D1103408F1D5
:109CE00010081F46E8E7D5F8A4207368D20786D588
:109CF00095F8CC2005F1C4012846FFF7FCFC04468A
:109D0000C7E774887368022C7FF479AFB5F8A02098
:109D10001A80ADE7D5F8A4307268C3F3002313703E
:109D20007BE700002DE9F0471F468AB004460E4647
:109D30009146FFF7AAFE07F01F03072B08BF07F0A5
:109D4000F807314604F1160008BF47F0010703F099
:109D500064FBB8B9257D3146003D04F1260018BFEB
:109D6000012503F05AFB6D42804688B995B1637DA9
:109D7000002B4AD02046FFF78FFE6FF00B000AB091
:109D8000BDE8F08700252046FFF786FE2846F6E767
:109D90000125F8E70546D4F8A430DB040BD42822CB
:109DA00031461F48B4F972A103F088FB51460246C0
:109DB0001C4804F0A7F8611904EB05130F7532462F
:109DC000163306F1100052F8047B43F8047B8242FC
:109DD000F9D10B7D03F01F03102BD4D10023029384
:109DE000B4F9720103AA02A9FFF76AF9074670B92C
:109DF000B8F1000FC7D14FF0FF330093B4F97201EF
:109E00004A463146FFF7F4F8BDE70125C3E731467E
:109E100003A803F018FB484528BFB846E0E700BF99
:109E20005C1500208B20030038B504460D46FFF773
:109E30002CFE294600222046FFF7C1FC054620469D
:109E4000FFF72AFE284638BD2DE9F04F04468FB0B3
:109E500017460191FFF719FE257D002D00F0A9801E
:109E60006A0740F0A580002F00F0A68004F11600DC
:109E7000FFF772FC00280BBF002580254FF0FF364E
:109E80000026637D002B00F0A1805B0740F09E80E0
:109E9000002F40F0948045F040057642002701985D
:109EA000ADF81470FFF7C6FC04F116084FF0FF314F
:109EB00002460DF1140943460091BB468BF00701A1
:109EC000012000FA01F129422BD001990392184692
:109ED0009A46029303F0A1FA00285BD1029B184630
:109EE000FFF7A8FC039A99F80010029B824276D1F2
:109EF00011440F31C8B204F1140189F8000011F8BF
:109F00000B1001F01F0108291CBF013089F8000067
:109F100099F800100098B94288BF5846009088BF51
:109F20000F4609F101091033BBF1000F54D04FF077
:109F300000094D4605AB5B5DBB4221D1019940460E
:109F400003F081FA029082464046FFF705FC0028A4
:109F500056D106908346B4F9720107AA06A9FFF705
:109F6000AFF8002843D1BBF1000F04D0029B5B4542
:109F700028BF5B469A46D1453CBF5FFA8AF90095F7
:109F800008F110088DB3009B002B06DB04EB0313D4
:109F900003F1160ABAF1000F03D104EB061606F11D
:109FA000160A2046FFF778FD50460FB0BDE8F08F47
:109FB00000254FF0FF3664E780253E4661E704F157
:109FC0002600FFF7C9FB00287FF465AF002E3FF4A1
:109FD00065AF4FF0000AE4E74FF0010B6EE73CBFBE
:109FE000101A0F310844C0B285E70125A2E74146A7
:109FF00007A803F028FA584588BF9DF82CB0AAE7B7
:10A000004FF0400BB2E738B5054600242046FFF775
:10A0100022FD044660B100222946FFF7D0FB00284C
:10A0200006DA012229462046FFF7C9FB0028EDDBAE
:10A03000204638BD2DE9F34105466A4690F8710186
:10A040000E4603F0A4FB04462846FFF71EFD002C35
:10A050001DDDA3B26A466E212846FFF75CFB10F1B6
:10A06000860F044601D0002814DB05F136080027CE
:10A070004FF0FF343146404603F0CFF970B1284627
:10A08000FFF70AFD3C46204602B0BDE8F08114F11E
:10A09000860FEAD02846FFF7FFFCF4E7621C05D1E3
:10A0A0004046FFF74DFB002818BF3C460137032F01
:10A0B00008F11008DED1631C05D12846FFF7ECFC3F
:10A0C0006FF00B04DFE705EB04133146363306F17E
:10A0D000100251F8040B43F8040B9142F9D1D9E76F
:10A0E0002DE9FF4704466A4690F871018A4603F05D
:10A0F0004EFB051E02DA15F1860F2FD12046FFF721
:10A10000C4FC002704F13608B9464FF0FF36002D95
:10A1100013DD4046FFF714FB78B994F8710102AAE9
:10A12000414603F034FB854207D12A46694602A81E
:10A1300007F036FC08B909F101094046514603F021
:10A140006CF9002818BF3E460137032F08F11008AC
:10A15000DDD1002E05DA2046FFF79EFC04B0BDE8F5
:10A16000F087B9F1010F05D1ABB26A466F212046E5
:10A17000FFF7D1FA04EB061010220021363007F069
:10A18000CBF9E8E7000000002DE9F04F2DED028B40
:10A190009FED298B8BB04B7B8DF815304FF080797C
:10A1A000CB89CDF810904FF0FF0A04468DED028B5D
:10A1B0000E468DF814A0ADF81630FFF766FC04F1DA
:10A1C000160504F1140804F1360B01273146284620
:10A1D00003F023F9C0B1002188F8001010222846AE
:10A1E00007F09AF910355D4508F10108EED11FB16D
:10A1F00002A92046FFF774FF2046FFF74DFC0BB085
:10A20000BDEC028BBDE8F08F8DED068BCDF8209074
:10A210008DF824A06A7B8DF82520EA89019002A997
:10A2200006A8ADF8262003F0F8F8019B002818BF17
:10A230001F46D7E7AFF30080FF02000000000000D8
:10A2400070B50E460546FFF720FC33781B2B11D85E
:10A25000062B11D9073B142B0ED8DFE803F01F0D96
:10A2600025350D3F440D0D0D490D0D0D0D0D0D0D39
:10A270000D0D5E00412B43D0A868726803683178E9
:10A280009C693389A047041E23DD3378052B57D8FA
:10A29000012B1ED92846FFF777FA1AE073681B785E
:10A2A00085F87031012414E07288716802F0E003CF
:10A2B00043F01003120A2846FFF734FD041E07DAA4
:10A2C00014F1860F05D1D7E771682846FFF75CFFC8
:10A2D00010242846FFF7E0FB204670BD7168284631
:10A2E000FFF7A8FEEAE771682846FFF7F9FEEFE7F7
:10A2F00074887368022CBFD11B88A5F8A030E8E7EA
:10A300007268D5F8A4301278012A0CBF43F4807328
:10A3100023F48073C5F8A430C4E77268D5F8A4307C
:10A320001178A86801290CBF43F4803323F48033EB
:10A33000C5F8A43003681B219C693389A047B1E7A5
:10A34000572BC6D12846FFF79FF9C2E737B5144B04
:10A3500004468068C0E901340368DB689847002838
:10A360001BDB204604F0F0F8A06803680DF106023C
:10A3700028215D690223A847BDF8063084F87131B1
:10A380002046FFF781F92046FFF7FEF940232046DB
:10A3900084F87031FEF7F0F9002003B030BD00BF43
:10A3A000159902002DE9F041174603F108020A440D
:10A3B0000E46002180461C4608464FF0FF3300F051
:10A3C00023FC0546F0B140680022428082804FF4B1
:10A3D000004206704470C280B8F1000F05D026B16B
:10A3E00032464146083007F03DFA5FB154B1686823
:10A3F0004378A34206D103780833224639461844ED
:10A4000007F030FA2846BDE8F081000010B5044698
:10A4100086B0B0F90210214803F074FDB4F90610BB
:10A420001F4803F06FFD61791E4803F06BFD1E4865
:10A4300003F068FD237933B31A0602D51B4803F0F5
:10A4400061FD23795B0602D5194803F05BFD1948CD
:10A4500003F084FD2178C1B16A4604F1080003F0DD
:10A4600099F90146144803F04DFD617889B12078CF
:10A4700008306A46204403F08DF901460F4803F086
:10A4800041FD06B010BD0E48E2E70E4803F066FD40
:10A49000EBE70D4803F062FDF3E700BF3021030056
:10A4A0003D210300482103005121030059210300ED
:10A4B00064210300FB2203007321030095210300A4
:10A4C0006F21030083210300A5210300002100F078
:10A4D0006DBA0000F0B5856891B06C8C6B8AADF8F0
:10A4E000183004F028040E4681B391F90C30013382
:10A4F00044D149680B79DF0654BF44F0010444F0AD
:10A5000011043F2B9BBF0B7891F801C01D4B083302
:10A5100094BF5B184FF0020C22071BD505F1160102
:10A520000822A87F471CAF77CDE903400AAFBDF8EA
:10A530001800ADF80800ADF80400CDF800C03846AA
:10A5400002F00CFB78B93046FFF7C0FF6FF0150042
:10A5500011B0F0BD0A780AB10831E2E790F8CC20DA
:10A5600000F1C401DDE73368CDE907372B68C0B2DD
:10A5700009901B6807A928469847E9E76FF04C0047
:10A58000E6E700BF002803002DE9F04F8668336836
:10A590009C68002387B005461A4619463046A047F6
:10A5A0000228074640F3A9800023024619461846B0
:10A5B00000F02AFB3368044650B99D680146034603
:10A5C0003A463046A8470024204607B0BDE8F08F41
:10A5D000D3F8088041683A4601AB3046C047071EB1
:10A5E00003DC2046FFF772FFEDE7D5F8A430D9036E
:10A5F0001DD500231A4619461846FFF7D3FE00283A
:10A60000EFD043689DF806205A71BDF80420DA8027
:10A610000DB1B5F972515D8023461A461B68002BB7
:10A62000FBD110603946204600F094FBCCE760680F
:10A6300002F01CFBD4F804B081460028D1D0874238
:10A64000CFD36A4604A9584602F08DFB6A4682467B
:10A6500002A9584602F03DFBBAF1000FC1DB002809
:10A66000BFDDC1B25FFA8AF304AA02A8FFF79AFE1F
:10A6700080460028B5D0BAF1020F43680AD19DF890
:10A6800010209DF811100A40FF2A02BF1A7962F0CB
:10A690007F021A719BF80020D20642BF1A7942F05D
:10A6A00010021A719DF806205A71BDF80420DA8054
:10A6B0000DB1B5F972515D80336804F10C025D692A
:10A6C000192101233046A84749460022204600F0C0
:10A6D000D9FA014620B92046FFF7F8FE404681E747
:10A6E00083682046FF1A00F083F923461A461B6848
:10A6F000002BFBD1C2F8008094E700287FF763AFFE
:10A7000033689C680023024619463046A0475AE742
:10A710001FB5054C0294079C0194069C0094FFF71A
:10A7200067F904B010BD00BFE827030013B50C4C57
:10A730000823A38104F0E4FF204603F0F1FE04F1B6
:10A74000280005F0E9F8074B00930749019402231C
:10A750004FF460720548FFF7DBFF02B010BD00BF89
:10A7600084150020B721030070170020FC1500207D
:10A77000FFF7DCBF38B5012105460B48FBF77AFF30
:10A780000A4A002352F83300D90038B9084C0C4467
:10A7900065600548FBF7A2FF204638BD0133102B4A
:10A7A000F0D10024F5E700BF701B0020F41A002050
:10A7B000F01A002010B504460846FFF7DBFF70B121
:10A7C00000230360D4F8D43033B11A461B68002B41
:10A7D000FBD11060002010BDC4F8D400FAE74FF0A0
:10A7E000FF30F8E741F2332313B5A0F8DA30EFF386
:10A7F000108472B6B0F97231009300F1E00100F1FB
:10A80000D803054841F28832006806F073FD84F3EE
:10A81000108802B010BD00BF7C29030010B50446AB
:10A820000846FFF7A7FF30B1D4F8D4300360C4F86E
:10A83000D400002010BD4FF0FF30FBE758B9CBB279
:10A84000052B00D97047054B53F8210000B970471C
:10A8500043689342FBD00068F8E700BF801B0020EC
:10A8600070B50D4D0D4E0E4C0B480121FBF702FF4C
:10A8700033682BB9BDE8704009480121FBF7FABEE7
:10A880002846FBF72BFF01212046FBF7F3FE20466D
:10A89000FBF724FFE8E700BF7C1B0020781B0020AB
:10A8A000741B002010B50A4C0A480121FBF7E2FE98
:10A8B00023681BB908480121FBF7DCFE2368054823
:10A8C0005A1C1CBF01332360BDE81040FBF706BFD4
:10A8D000781B00207C1B0020741B002008B5012180
:10A8E0000848FBF7C7FE084A1368591C05D0013B0E
:10A8F000136013B90548FBF7F1FEBDE808400148B5
:10A90000FBF7ECBE7C1B0020781B0020741B002092
:10A91000C3B2052B70B505460E4613D8FFF7A0FF4E
:10A920000A4B53F82520144654B93260084843F8BE
:10A930002560FBF7D3FE0748FBF7D0FE204670BD2D
:10A940002468F1E76FF01500F9E700BF801B0020D5
:10A95000741B00207C1B00200A4601460020FFF7E4
:10A960006DBF70B505460E46FFF79CFF00200446FC
:10A9700032462946FFF762FF18B9FFF7AFFF2046BE
:10A9800070BD0134F4E718B142680021FFF756BFEB
:10A99000704729B190F90C30032B04D1FCF7DEBCD1
:10A9A0006FF0150070476FF00100704770B501211E
:10A9B00004460E48FBF75EFE002524B9BDE8704052
:10A9C0000A48FBF78BBE637B2668012B0AD1D4E9CA
:10A9D0000101657300F0B2F81021204600F0AEF8D6
:10A9E0003446EAE7013B6373FAE700BF981B002097
:10A9F00003468B4210B5084606D10C680021016061
:10AA0000FFF7D4FF204610BD31B11A4622B11168BC
:10AA1000884203D1016811601C46EFE70A46F5E75A
:10AA200070B5866804460346002173B98E420AD089
:10AA3000204600F08FF938B9256855B920682946B5
:10AA4000FFF7B4FF2560002070BD9A681B681144B1
:10AA5000EBE76068D5E90112304406F003FFAB680C
:10AA60002D681E44E9E7000030B5144C0346073357
:10AA7000206823F00703002140B142689A4206D3C0
:10AA8000D21A072A08D8036821B9236030BD0146CD
:10AA90000068F1E70B60F9E7094D03445D1BB5F56C
:10AAA000C05F05D9002121600168C3E90012EDE70C
:10AAB00009B92360F8E70B60F6E700BF9C1B002094
:10AAC000981B002010B5094C01212046FBF7D2FD50
:10AAD000074A084B136000214FF4C0522046BDE8DE
:10AAE0001040C3E90012FBF7F9BD00BF981B00201E
:10AAF0009C1B0020A01B002038B504460D460748CB
:10AB00000121FBF7B7FD24B9BDE838400348FBF746
:10AB1000E5BD637B2B4463732468F4E7981B002036
:10AB2000054B834206D803F5C053834294BF0020EF
:10AB30000120704700207047A01B002070B51C4DFD
:10AB400002462C6810B1FFF7EBFF10BB70BD234627
:10AB500024680CB19442FAD3073121F0070115485B
:10AB60005618801B072898BF0918C2E9004193B9FD
:10AB70002A6013461A68002AE8D059681944511A05
:10AB80000729E3D811681960D11A52680A445A603B
:10AB9000DCE70023DDE759681A601944511A0729D8
:10ABA000E7D811681960D11A52680A445A60E1E77F
:10ABB0009C1B0020A03300202DE9F8438146102083
:10ABC0000F4615469846FFF74FFF044648B1CDB1F2
:10ABD0002846FFF749FF064638B910212046FFF7FF
:10ABE000ADFF00242046BDE8F8831FB12A46394650
:10ABF00006F038FE0123C4E90096A56084F80C80B5
:10AC00006373EFE72E46F5E7B2F5C05FF8B505468A
:10AC10000E4614461F460FD801210848FBF72AFDAF
:10AC200022463B4631462846FFF7C6FF0446034806
:10AC3000FBF754FD2046F8BD0024FBE7981B0020DD
:10AC400038B5012104460E48FBF714FD1CB90C4829
:10AC5000FBF744FD12E0637B012BF8D9D4E9011224
:10AC600094F90C302068FFF7A7FF054610B1637B0D
:10AC7000013B63730248FBF731FD2C46204638BD8B
:10AC8000981B00202DE9F8430D4604460121304869
:10AC90009146FBF7EFFC35B12CB1D4F80880A845FC
:10ACA00001D3636833B92A48FBF718FD0026304604
:10ACB000BDE8F8831020FFF7D7FE06460028F2D043
:10ACC000A8453DD0EB1D23F007039D423CD228460A
:10ACD000FFF7CAFE074620B910213046FFF72EFFC6
:10ACE000E1E7A8EB0500FFF7BFFE804630B9102171
:10ACF0003046FFF723FF29463846EFE761682A46CA
:10AD0000384606F0AFFDD4E9011240462944521BF3
:10AD100006F0A8FDD4E90101FFF710FFA368C4F80D
:10AD200004805B1BA36023680948B560C6E900374F
:10AD3000012386F80C9073732660FBF7CFFCB6E70F
:10AD400067684FF00008E9E7676807EB0508E5E783
:10AD5000981B0020F8B504460D461E480121FBF75C
:10AD600089FCA668AE4204D11A48FBF7B7FC002064
:10AD700013E03DB96068F8B13146FFF7DFFE65606A
:10AD8000A560F1E7AE4217D22846FFF76DFE0746F1
:10AD900020B91048FBF7A2FC0C20F8BD616829B16E
:10ADA000AE42324628BF2A4606F05CFDD4E90101D6
:10ADB000FFF7C4FE6760E3E7EB1DF21D23F0070316
:10ADC00022F007029342DBD26068F11A1844FFF7C1
:10ADD000B5FED5E7981B00202DE9F84F0027DFF8D6
:10ADE000D080DFF8D090DFF8D0A0834604463E46FE
:10ADF00054B931463A46294803F084F8214658466A
:10AE0000BDE8F84FFFF7D2BD3146A268404603F0D7
:10AE100079F894F90C104B1C042B3DD8DFE803F0B3
:10AE2000031B212A33001E484FF0FF3103F06AF85C
:10AE30006068FFF7EBFAA068A168814206D96568EF
:10AE4000091A00231022284404F070FDA368246826
:10AE500001361F44CCE71348002103F053F80020CB
:10AE6000EAE70121104803F04DF8D4E9010104F0AC
:10AE70003FFEE0E70221504603F044F8606802F02C
:10AE8000BDFB2820D8E70321484603F03BF8606863
:10AE900001F050FE0420CFE70448DEE764220300FF
:10AEA000E6210300FA2103000E2203004E220300D4
:10AEB000C121030039220300262203001FB51948CF
:10AEC000194D1A4C1A4E0821FBF7C8FB6FF0850389
:10AED000039340F20523ADF80A306846FBF7BBFB4D
:10AEE000BDF8023040F20222934218D007D840F257
:10AEF000012293420CD0204603F030F8EDE7A3F294
:10AF00000323012BF7D802A96846FBF77FFBE4E790
:10AF1000304603F023F80198FFF75EFFDDE728468F
:10AF2000F7E700BFA0330020A9220300C0220300DE
:10AF3000912203001FB50A4CB4F900305BB9094AED
:10AF40000948CDE90132094A00924FF4B86106225E
:10AF5000FBF76CFD2080B4F9000004B010BD00BF09
:10AF6000A0390020E7220300E0330020BDAE02003C
:10AF700018B190F90C308B4200D170470068F7E7A8
:10AF800008B5084B18684369013306D006F02AF863
:10AF90004EF66023B0FBF3F008BD83685B6898470A
:10AFA000F6E700BF7829030038B50C4C142303FBE7
:10AFB00000440546638A23B9637C23F0100363745D
:10AFC00038BDFFF7DDFF064B53F82530834202D82A
:10AFD00000236382F0E71B1A6382F1E7E83900205F
:10AFE000A83900202DE9F041012180461048114D7B
:10AFF000FBF740FB002426462746E0B2FFF7D4FFCC
:10B000002B7C53B14146284602F01DFA2B7C83422B
:10B0100003D8B84284BF2E4607460134102C05F1F0
:10B020001405EAD10248FBF759FB3046BDE8F08130
:10B03000A4390020E83900200F2838B5044616D876
:10B0400001210C480C4DFBF715FB2046FFF7ACFF28
:10B05000142303FB045307481B7C33B104EB840423
:10B06000FBF73CFB05EB840038BDFBF737FB00200A
:10B07000FAE700BFA4390020E83900202DE9F843A1
:10B080000F289DF820500646884614461F4639D89A
:10B09000AAB301211C48FBF7EDFA1C4B002F4FF01F
:10B0A000140909FB063908BF0025802C28BF80241D
:10B0B00089F810406D4206EB860403EB840405F02A
:10B0C0001005414635432046A9F8127089F8115001
:10B0D00002F0A3F9014648B91022204606F01CFAF6
:10B0E00099F810204146204602F0CCF9FFF748FFBE
:10B0F000074B0744044843F82670FBF7EFFA204655
:10B10000BDE8F8830024FAE7A4390020E8390020DC
:10B11000A839002002480368002B18BF00207047A0
:10B120002C3B0020024B1888013080B218807047F9
:10B13000283B00202DE9F04180460D4616461C466E
:10B140000DB1B44202D32046BDE8F081AB68696816
:10B15000371B9F4228BF1F4608EB0400BAB23C448D
:10B1600006F080FBA4B22D68EAE7F8B50E46017838
:10B17000934228BF134601F10802024405461F46C8
:10B18000083010F8073CFFF70DF9044678B1426823
:10B190002B6813606B6853600021084601233A4610
:10B1A000FFF732FD014628B92046FFF7FFFB0024D8
:10B1B0002046F8BDB38842685BBA1380F3885BBA57
:10B1C00053802060F4E72DE9F04F0B681C6885B0D0
:10B1D0000D464FF00009002C4AD15B68B3F902001C
:10B1E000FEF748FC2E892F68002E45D1AB8890F8D9
:10B1F000CE607868A3EB090306FA83F6043E26F0D6
:10B200000706F61AB6B2331D4A462946FFF7ADFFC8
:10B210008046002800F088800368D8F80420586829
:10B22000037863F03F0300F8043B137943F0100305
:10B230001371396832462346FFF77CFF22460746E2
:10B240002146404600F00CFB002F6DD02B89039562
:10B250001F442F8140F2252302A8ADF80A30FBF7E6
:10B260006DF9002860D005B0BDE8F04FFBF7B0BB2A
:10B27000A26824689144AEE74E4555D2B0F8CE801E
:10B280007868A8F1050828F007081FFA88F808F17F
:10B290000503C6F105029BB24A442946FFF765FF44
:10B2A0008246002840D003685A6893461BF8053B45
:10B2B00063F01F031370AB88A3EB09033344DB1067
:10B2C00013713F6877B3A64201D1002314E0BB6835
:10B2D000E21892B2964222D2341BA4B21B1B7968A8
:10B2E000434528BF43461A4621445846019306F079
:10B2F000B9FA019B3F689BB2424639465846FFF770
:10B3000019FF0644B14581BFDAF80420137943F0F0
:10B3100010031371002207461146504692E73F681A
:10B320001446CFE73B46E7E728680021FFF73EFBDE
:10B3300000232B6005B0BDE8F08F436819782DE934
:10B34000F04101F0F8010668C029D6F804800446EF
:10B35000174619D0E02912D11D79ED0001213046A0
:10B36000FFF7CAFB3B462A462146404600F0F2F969
:10B3700010B1414600F008FA0021304600E00021FB
:10B38000BDE8F041FFF712BB0025E7E74269013253
:10B3900001D005F027BE83685B6818470021FFF7DE
:10B3A00005BB000007B5074B07481B88074A08493B
:10B3B00000681BB20093074B05F09CFF03B05DF8DB
:10B3C00004FB00BF380F00207C290300C0C62D00FD
:10B3D000383B002000020020002203680BB90383E1
:10B3E00070471968C3E900220160F6E710B5FFF75E
:10B3F000F3FF0023036210BDF8B50C4B0C4C18682A
:10B400000C4FFFF7C3FF04250646206A40B1E369ED
:10B41000F31ABB4204D9FFF7C1FF2046FFF7E6FF4E
:10B42000013D04F12404F0D1F8BD00BF7C290300E4
:10B43000483B0020C0C62D002DE9F04F93468BB04D
:10B440000246099312F8083B05920833C318049387
:10B450004B681A7802F0F802C02A04460E460AD059
:10B46000E02A7AD03046FFF799FF4FF0FF342046AC
:10B470000BB0BDE8F08F1A1DB5680092BBF1000F4C
:10B480006DD1032DEED9009A1278412A69D0043D7E
:10B49000002DE7D01A8852BAC2F30A0203925B88E1
:10B4A0005BBAADF81E309BB20893FFF7A5FF237877
:10B4B000019363780293A24BA24C1868FFF766FFD2
:10B4C0004FF0000806904746C246236AA146002B6B
:10B4D00000F0D180E38A089A934240F0CF80238B1A
:10B4E000039A9A4240F0CA80237D019A9A4240F022
:10B4F000C580637D029A9A4240F0C080019A059906
:10B50000201D06F04DFA002840F0B880029A0499F8
:10B5100004F10C0006F044FA002840F0AF80894B9B
:10B52000242202FB0A33069ADA61FFF73BFF5446F6
:10B53000DFF810C22420604300EB0C070BEB05037F
:10B540003A8B934211D9386AFFF728FF3046FFF74C
:10B5500025FF3846FFF74AFF87E75A1D8CE7042D81
:10B5600080D9053D94E7C846AFE71FFA8BF15CF838
:10B5700000804A1E2A44434692B26BBB4A1E12FA0E
:10B5800085F292B2DFF8C49101921FFA85FA39F878
:10B5900033204FEAC30E8ABBDFF8B491019ACE4440
:10B5A0004CF800E0AEF80410AEF8062049F83380FD
:10B5B0007B8BDFF8908153447B83BBF1000F2FD04E
:10B5C000242303FB04880099D8F8203058682A46C1
:10B5D000584406F047F91FE0B3F804E0724509D378
:10B5E000B3F80690494505D8714540F09C804A451E
:10B5F00040F09980F3450FD01B68BEE70133342B30
:10B60000C5D1242303FB04C34FF0FF34186AFFF7AE
:10B61000C5FE3846FFF7EAFE3046FFF7BFFE26E7D5
:10B62000009B1B7803F0E002602A1ED173681B7830
:10B6300003F0D803C02B04D0242303FB0483186A2F
:10B6400082E7012204213046FFF71CFB0028F3D0DB
:10B650005A463946304600F0EBFE242303FB0483B0
:10B660001B6A002B7FF403AFFFE6412B02BF009B58
:10B6700001330093A4E7002F08BF2746B8F1000F5D
:10B6800009D0E269D8F81C309B1A6FF0004293424F
:10B6900034BFA146C1460AF1010ABAF1040F04F110
:10B6A00024047FF460AF3FB9D9F82000FFF776FE9D
:10B6B0004846FFF79BFE4F46099B039AB3FA83F374
:10B6C00000215B095B000846FFF79EFA38620028FC
:10B6D0003FF4C8AE436813B100221A605A60039B5E
:10B6E0003B83069BFB61019A0599381D06F0BAF869
:10B6F000029A049907F10C0006F0B4F8019B3B751F
:10B70000029B7B75BDF81E30FB8200237B83FFF715
:10B7100049FE0C4B0C4AFB1A9C10002B02FB04F454
:10B72000BFF606AF9EE6242303FB04C36FF00104BB
:10B73000186AFFF733FE3846FFF758FE97E600BF5A
:10B740007C290300483B0020398EE338DE3B002093
:10B75000D83B0020F8B51F4604460D461646FFF7B5
:10B760006BFE831C05D13B46324629462046FFF737
:10B7700063FE0028A3BF034B242202FB00300020FD
:10B78000F8BD00BF483B002038B5428B038B9A427E
:10B7900004460D462ED1437D017D00F10C0204309C
:10B7A000FEF700FE40B9206AFFF7F8FD2046FFF7DC
:10B7B0001DFE4FF0FF3038BD4368B5F902205A80B6
:10B7C0002A791A716A795A71B5F90620DA80226AE3
:10B7D00032B1134619461B68002BFBD10860104696
:10B7E00000222062114600F029F82046FFF7FEFDF6
:10B7F0000120E0E70020DEE70021FFF7D7B80000D6
:10B800001FB50A4CB4F9000000280CDC084B094AAB
:10B810000293002300920848019303224FF47071B1
:10B82000FBF704F9208004B010BD00BF7841002070
:10B83000EF220300F9B80200B83D002010B503461E
:10B840000446064940F201220220FDF795FE20B988
:10B850002046BDE81040FFF7CFBF10BD0000FFFF3E
:10B86000436810B50446B3F90200FEF703F940F24D
:10B870000222B0F972012146FDF773FE002804DCB4
:10B880002046BDE81040FFF7B7BF10BD2DE9F041DD
:10B8900006681F460446884600235EB9B2F8CE20EB
:10B8A0000AB19A420AD33A4620460021BDE8F04147
:10B8B000FFF7D6BFB16836680B44EEE7B8F5006F06
:10B8C00017D2FFF727FC054628B90C212046BDE812
:10B8D000F041FFF76BB80460A0F80480FFF722FC8A
:10B8E0002E81E8803A4629462046BDE8F041FFF720
:10B8F0006ABC7A21EAE7000080B588B0002305938E
:10B90000A3F5803306935E4B5E481B88ADF81C3070
:10B910000821FAF7A3FE05A90120FEF7F9FF40F27E
:10B920000523ADF80E3040F202266FF0850701A81E
:10B93000FAF791FEBDF80630B3F5017F30D8B34277
:10B9400000F2928040F20122934234D0B342EED111
:10B95000029DB5B3AB68072B33D92B688BB393F932
:10B960000C30022B2DD12846FFF76AF9044640B36C
:10B970004368B3F90200FEF77DF8256880464FF072
:10B980000009002D57D1B8F1000F24D0D8F8A43009
:10B99000DB0554D52A462946204600F052FFC6E76B
:10B9A00040F22522934265D040F226229342BED136
:10B9B000FFF722FDBBE7029D2846FFF741F9044649
:10B9C00018B92846FFF718FFB1E70121FFF7D0FAB1
:10B9D00008B182680AB92046F4E743681B78412B16
:10B9E00015D1FFF72DF905460028F4D001221146A4
:10B9F000FFF748F901460028EDD02046FEF7F8FF92
:10BA0000022300222B731146FFF718FF8FE703F084
:10BA1000D802C02A09D003F0E003602BDBD100225A
:10BA20001146204600F004FD81E700221146204621
:10BA3000FFF783FC7BE7AB682D689944A1E70123FE
:10BA40001A4629462846FFF7DFF80028C3D02368A6
:10BA500003604368206041221A7049462B464246E3
:10BA60002046FFF713FF62E703A901A80497FAF73E
:10BA7000CDFD5CE7002202991046FFF7A4FB56E7D4
:10BA8000380F0020783D00203C280ED8282805D803
:10BA900068B1112814BF002001207047054B2938D8
:10BAA000C0B2C34003F0010070478728F2E70120CD
:10BAB000704700BF0D000800024A13680360536816
:10BAC00043607047322803001022002105F024BD96
:10BAD0000021FEF76BBF000010B50A49082204469A
