:020000022000DC
:10600000000200202D6D0200B96C0200C96C020074
:10601000D96C0200E96C0200F96C0200000000007B
:106020000000000000000000000000009D6C020065
:10603000096D020000000000516C0200196D0200A1
:10604000D9E702005DF9020035EE0200FD6E0200A4
:10605000196F0200D9E70200D9E70200D9E7020070
:10606000D9E7020009EC02000FEC0200D9E70200B8
:10607000D9E70200D9E70200D9E70200D9E7020018
:10608000D9E7020011E90200D9E70200D9E70200CE
:10609000D9E70200D9E70200D9E70200D9E70200F8
:1060A000D9E70200D9E7020015EC02001BEC020060
:1060B000D9E70200D9E7020000000000000000005C
:1060C000D9E70200D9E70200D9E70200356F0200E4
:1060D000D9E70200D9E70200D9E702007DF3020008
:1060E000D9E70200D9E70200D9E70200000000006A
:1060F00000000000D9E7020000000000516F02001C
:106100002DE9F041214BC0B018684FF4FA610BF053
:106110004FF8042303931E4B08931E4B04AC03F16A
:10612000100518685968224603C20833AB4214466A
:10613000F7D102238DF81130002319461A4619A809
:1061400006F056FC0321292008F048FBDFF85080B8
:10615000114E124F002409AD22464146284608F050
:1061600015F828460BF0ECF800236946029003AAC4
:1061700019A8CDE9003506F09DFC292008F04CFB5C
:106180003068394601340BF013F8E4E7101B0300C4
:106190000000B822AA190300141B0300A086010006
:1061A0004C16030070B5064E064CA41BA40800252F
:1061B000AC4200D170BD56F8253098470135F7E75D
:1061C000301B0300541B030013B5002009F0C0F876
:1061D000084C014620460AF097FC204609F0AEFF25
:1061E000054B0648009401224FF480610AF098FCA8
:1061F00002B010BD5002002054160300000400201D
:10620000704700004FF080435722C3F81C25BFF3AE
:106210004F8F0549054BCA6802F4E0621343CB6017
:10622000BFF34F8F00BFFDE700ED00E00400FA056B
:1062300008B5FFF7B7FF034807F0BCFFFFF760FFA3
:10624000002008BD5A1603001FB5EFF3108372B685
:10625000074B029300230193064B0093072204236C
:106260004FF4C061044800F013FC00F0DBFC00BFF9
:1062700094160300316202000008002008B509F0FE
:1062800071FCBDE8084009F011BD704708B50B4B23
:106290001A680C4652B901221A60FFF7F6FF084847
:1062A000214607F053FF074807F084FFEFF3108300
:1062B00072B600F06FFC00F06FFC00BF000E002013
:1062C00099160300B516030070B50D46002104466B
:1062D00000F002FA0D4E70B9BFF35B8FE388BFF395
:1062E0005B8F32881BB212B29A4204D06DB9012181
:1062F000204600F0F1F93388BFF35B8FE380BFF3F2
:106300005B8FA3880133A380012070BDD80E0020CD
:106310000021FFF7D9BF8388013B9BB2838033B94B
:10632000BFF35B8FC380BFF35B8F00F009BA704788
:106330002DE9F04704460E461746EFF3108872B673
:106340000568C5B9DFF88890051DD4E90331A26856
:106350009A1A8A4222DC1D4A12883280581C6269CD
:10636000E0600B4096E8030002EBC30383E8030000
:1063700088F3108810E055F80C390360D1E900016A
:106380002B6983E8030028460C2100F057FA68794E
:1063900088F3108800F08EFA012714E08FB1D9F845
:1063A00000A00921504600F049FA5146284600F065
:1063B00061FB88F3108800F03DFBEFF3108872B6A4
:1063C000C3E788F310883846BDE8F087D80E002070
:1063D0004C0E0020F8B50346EFF3108672B6304A33
:1063E0001468676A002F54D0D4E90620904250D038
:1063F000501CA061206A024039B9616929B9511C59
:1064000003D186F310881046F8BD002A45DB07EB60
:10641000C20103C983E8030065697DB9002A27DA50
:106420000421204600F00AFA86F310881D4B4FF035
:1064300080525A60BFF36F8F0122E4E755F80C19C0
:106440006161002A0CDBD4E90731A2699A1A9142F2
:10645000A9BF5A1C4FF0FF330B40E26107EBC303A7
:106460002A6992E8030083E803002B79062B02D106
:1064700086F31088E0E7002328462B610C2100F00A
:10648000DDF9687986F310880E28D5D800F012FA65
:10649000D2E74FF0FF320029AFD02361BCE700BF45
:1064A0004C0E002000ED00E00346D0E9072010B5B7
:1064B0009C69141BA04201DA002010BD541C02404C
:1064C000DC61F9D4586A00EBC20203C982E8030018
:1064D0004FF40041184600F065FA0120EDE7000096
:1064E00008B50E4B53F82130A3B11A79042A0BD109
:1064F00003C81A6982E8030018460C2100F09EF9CF
:10650000074B0120186008BD01461846BDE8084049
:10651000FFF7CABF4FF0FF30F5E700BF540E002071
:10652000480E00202DE9F0411C46274B53F821501E
:10653000264B1B880380064690462DB984F31088AD
:106540004FF0FF30BDE8F081214B1F682B79042B01
:1065500030D001462846FFF7A7FF78B184F31088B2
:106560003B79062B02D01B4B1B682BB11A4B4FF00B
:1065700080525A60BFF36F8F0120E3E7B8F1000F3C
:1065800002D184F31088DDE73B793E61062B14BF0E
:1065900005210621384600F051F9394605F114006D
:1065A00000F068FA4FF40041284600F0FBF984F34C
:1065B0001088DBE7D0E900012B6983E803000C2198
:1065C000284600F03BF9F2E7540E0020D80E0020D8
:1065D0004C0E0020480E002000ED00E010B50146F2
:1065E000EFF3108472B6054B1B880380044B1868C8
:1065F000FFF75AFF84F3108810BD00BFD80E0020AB
:106600004C0E002021230380FFF76ABFEFF30583C0
:10661000DBB20BB1FFF7F6BF064B1B881BB29942EA
:1066200001D1FFF7DBBFEFF3108372B60122FFF752
:1066300079BF00BFD80E002010B4EFF3058212F02E
:10664000FF0203D05DF8044BFFF7DCBF074B1B884C
:106650001BB2994203D15DF8044BFFF7BFBFEFF3C4
:10666000108372B65DF8044BFFF75CBFD80E0020B4
:1066700038B5EFF3108572B60D4BB0F9002053F822
:1066800022402379062B04D085F310884FF0FF3089
:1066900038BD03C9236983E8030020460C2100F0BC
:1066A000CDF8607985F3108800F004F90120EFE758
:1066B000540E00200021FFF78DBE0121FFF78ABE96
:1066C000044B1B6800220139C3E906225862196293
:1066D000704700BF4C0E002070B504460846EFF32B
:1066E000108672B6236833B94FF0FF33236086F308
:1066F0001088012070BD11B986F31088FAE70E4B9F
:106700001D680321284600F099F8236801330DD154
:1067100005F10C0323600023EB6086F31088074B20
:106720004FF080525A60BFF36F8FE2E72946204650
:1067300000F0A0F9F1E700BF4C0E002000ED00E0F2
:1067400038B50446EFF3108572B6006810B985F3CA
:10675000108838BD431C02D100232360F7E750F8AE
:106760000C3923600C2100F069F8236813B94FF04D
:10677000FF33236085F31088034B4FF080525A603B
:10678000BFF36F8FE5E700BF00ED00E0026810B5D2
:106790004AB113688B4207D19A4202D100230360A9
:1067A00001E01B68136010BD13461B681C68A14202
:1067B00002D09A42F9D1F6E7002BF4D00A681A60A9
:1067C00002689142EFD1EAE770B5174D174E2B687A
:1067D000346833BB24B123790B2B04BF0C23237102
:1067E00000F064FA2B68002BFAD00023104A002135
:1067F00011602A680F49B2FA82F251F8222010681B
:106800000C380B22844202710AD023B11A790B2A68
:1068100004BF0C221A71084BB0F906201A803060B0
:1068200070BD2346E2E700BF040E00204C0E00209E
:10683000480E0020080E0020D80E002070B50A294E
:10684000037904460D461AD90A2B14D84279174BFE
:1068500000F10C0153F8220078B10068E06053F8B1
:106860002200016043F8221011494FF00043D34049
:106870000A6813430B60257170BDE160F2E70A2BD3
:10688000F9D94079094E04F10C0106EB8000FFF7BD
:106890007DFF637956F82320002AECD104494FF09C
:1068A0000042DA400B6823EA0203E3E7080E002007
:1068B000040E00200B4B1B685A791B790A2B01D957
:1068C00082420DD9EFF30583DBB21BB1064B0122E7
:1068D0001A607047054B4FF080525A60BFF36F8FBC
:1068E000704700BF4C0E0020480E002000ED00E075
:1068F00008B5EFF3108372B6094B0A4A1B880A4D9C
:106900001BB2002442F82340084A28681368214635
:10691000013B1360FFF792FF2C6000F083F900BF8A
:10692000D80E0020540E00204C0E0020500E0020E7
:1069300010B50346EFF3108472B6028902EA010033
:1069400022EA01021A8184F3108810BD0C4A034622
:1069500010B51068EFF3108472B6028913420CD19F
:1069600003610721FFF76AFF84F31088054B4FF09E
:1069700080525A60BFF36F8F10BD84F31088FBE71D
:106980004C0E002000ED00E038B5054B1D680446B4
:10699000FFF7DCFF21462846BDE83840FFF7C8BFB7
:1069A0004C0E002010B50389027941EA0304072A3E
:1069B000038A048103D0082A0DD0002407E01C407C
:1069C00005D00C21FFF73AFF054B01221A60201E6B
:1069D00018BF012010BDA343EFD10124F1E700BF90
:1069E000480E002010B5EFF3108472B603890279C7
:1069F0001943072A038A018104D0082A13D084F39B
:106A000010880FE01942FAD00C21FFF717FF074B4F
:106A100001221A6084F31088054B4FF080525A60AF
:106A2000BFF36F8F10BD8B43E9D1EDE7480E002017
:106A300000ED00E0EFF3108072B60B4B1B681A7983
:106A40000A2A07D95A79094B53F8221011B109685B
:106A500043F8221080F31088054B4FF080525A60A3
:106A6000BFF36F8F704700BF4C0E0020080E002050
:106A700000ED00E030B54C7901F10C0203460068EE
:106A800018B110F8075CA542F8D9C8601A6030BD8B
:106A90000F2A2DE9F84316461F4628D810F00303A5
:106AA0001EBF0439C918C3F10402A1F1280118BF9F
:106AB000801831F003031AD4C418EFF3108972B6AA
:106AC000224A0125114652F8048FB8F1000F11D067
:106AD0000135212DF7D189F310886FF08A0531E057
:106AE00002212046FFF7AAFE89F310882AE06FF002
:106AF000150527E02DB2024641F82540DDE90801E1
:106B0000E58000F05BF8124A20604FF0FF33C4E9E3
:106B100008381368667101331360FB07C4E9038802
:106B2000C4E9058884F80480C4F81C80D8D40C21FA
:106B30002046FFF783FE7A07D6D489F310883046C3
:106B4000FFF7B8FE2846BDE8F88300BF540E0020CA
:106B5000500E00200C4B0D4A10B540219A600C4C91
:106B6000E02283F82220D9770022A0180132302AAF
:106B700080F80013F9D11A6942F010021A615A69BB
:106B800042F400725A6110BD00ED00E000600200A6
:106B900000E100E070470000BFF34F8F0549064B4E
:106BA000CA6802F4E0621343CB60BFF34F8F00BFAB
:106BB000FDE700BF00ED00E00400FA051A4422F0F2
:106BC000030210B54FF0773442F8044C540758BF15
:106BD0004FF08834A2F104035CBF42F8084CA2F1E4
:106BE00008034FF0807243E902020D4A43F80C2C6F
:106BF0000020032243E9052043F8201C012202243F
:106C0000194643E907246FF0020241F8242D0B22B4
:106C100041F8042D013A032AFAD1A3F1440010BD32
:106C2000F16802000023E1EE103AEFF3148323F041
:106C3000040383F31488BFF36F8FEFF3108362B6FE
:106C4000024B4FF080525A60BFF36F8F00ED00E0AF
:106C5000114910B50C6872B6FFF7B6FD62B6A042D6
:106C600008BF10BD2146BDE8104049B1EFF30982CD
:106C70001EF0100F08BF22ED108A22E9F04F0A60C3
:106C80000068B0E8F04F1EF0100F08BFB0EC108A9B
:106C900080F30988704700004C0E0020024B4FF033
:106CA00080525A60704700BF00ED00E030BF62B60E
:106CB000BFF36F8F72B6704708B502490620FFF721
:106CC000E5FA00BFC716030008B502490720FFF721
:106CD000DDFA00BFD316030008B502490520FFF70F
:106CE000D5FA00BFE616030008B502490820FFF7F1
:106CF000CDFA00BFF916030008B502490920FFF7D5
:106D0000C5FA00BF0B17030008B502490A20FFF7B8
:106D1000BDFA00BF1F17030008B502490B20FFF79B
:106D2000B5FA00BF3117030070477047174A08B51E
:106D3000D2F8883043F47003C2F88830FFF7F4FFCC
:106D4000134B1448DA1C121AC11E22F00302994296
:106D500088BF002210490AF0B1FB104B1048DA1C22
:106D6000121AC11E22F00302994288BF002200219C
:106D70000AF052FBFFF7D9FF00F082F8FFF740FA64
:106D80000AF09CFABDE80840FFF75EBA00ED00E0AB
:106D90004C02002000020020C01B0300E84100203C
:106DA0005002002070470000EFF3108172B6094ACC
:106DB00013680133012B136009D14FF0804200208A
:106DC000C2F800011360D2F80031002BFBD081F330
:106DD00010887047DC0E0020EFF3108172B6064A6F
:106DE0001368013B13601BB94FF0804301225A60C6
:106DF00081F31088704700BFDC0E0020114A38B5BF
:106E00001378EBB94FF08044C4F81835C4F8043156
:106E10000123A360D4F80431002BFBD001251570A9
:106E2000FFF7C2FF0023C4F80C314FF08042256108
:106E3000D2F80C31002BFBD0BDE83840FFF7CCBFB7
:106E400038BD00BFDA0E00204FF0704393F8E02FFA
:106E5000062A12D1D3F8E40F10F00F000DD1D3F8A9
:106E6000E82F02F0F002302A08D1D3F8EC3F13F0FB
:106E7000F00F0CBF01200020704700207047000079
:106E800008B5FFF7E1FF30B1134AD2F8FC3023F028
:106E90008073C2F8FC30FFF7D7FF20B14FF080437A
:106EA0000322C3F8A025FFF7CFFF30B14FF0804396
:106EB0000022C3F80C21C3F81021FFF773FF074B22
:106EC0000122C3F84025FFF745FEFFF7D7F9BDE8DB
:106ED000084008F05DBE00BF00ED00E000E00140AA
:106EE000044B1B682BB1044B4FF080525A60BFF328
:106EF0006F8F7047480E002000ED00E008B5044A8F
:106F0000044B10681B689847BDE80840FFF7E8BFCE
:106F1000E00E0020F00E002008B5044A044B506833
:106F20005B689847BDE80840FFF7DABFE00E002035
:106F3000F00E002008B5044A044B90689B689847FF
:106F4000BDE80840FFF7CCBFE00E0020F00E0020A7
:106F500008B5044A044BD068DB689847BDE8084090
:106F6000FFF7BEBFE00E0020F00E002006F080BD4F
:106F70000346006838B10268904219BF1368036085
:106F80000021196010467047EFF3108272B60B684B
:106F900033B903685BB11B680B600368196001605B
:106FA000406882F3108820B10121FFF71BBD096002
:106FB000F5E7704710B5EFF3108472B6FFF7D8FF0E
:106FC00084F3108808B10023036010BD38B58569CB
:106FD000044685B10A4B1868436901330CD009F0A7
:106FE0007BFF23696A68C11A8A4226BF9B181B1A55
:106FF00000236B60206138BD83685B689847F0E7C9
:10700000101B03008369084A10B5044610682BB1B1
:107010005A68214609F0B5FF206110BD2146BDE840
:10702000104009F092BF00BF101B030083690022CB
:1070300010B504465A60A06930B1436823B90368AB
:10704000A36163699847F6E72046BDE81040FFF763
:10705000D9BF000070B505460C46EFF3108672B636
:10706000FFF7B4FF05F118000368BBB923600460A3
:10707000AB69A34206D10F4B62681868294609F034
:1070800080FF286186F310880B4B1B682BB10B4BDC
:107090004FF080525A60BFF36F8F70BD61685A68BD
:1070A000914203D3891A61601846DDE7521A2360C2
:1070B0005A60DCE7101B0300480E002000ED00E0E2
:1070C00070B504460D46EFF3108672B6FFF77EFFEB
:1070D000A36904F118022BB92046FFF793FF86F34A
:1070E000108870BD9D4202D01A461B68F3E72B68DA
:1070F0001360002BF0D05A6869680A445A60EBE7C5
:10710000034B4161C0E9023000238361704700BF37
:107110002D70020038B1054B0A0901F00F019A5C8D
:107120005B5C027043700220704700BF5D19030072
:10713000F8B50D465700064610B18C18A54201D18E
:107140003846F8BD304615F8011BFFF7E3FF06444B
:10715000F4E788B1E9B1002340EA0102D2070DD576
:10716000C2070FD5CA070FD5814222BF0A46014682
:107170001046421A0AD1994008467047400849080B
:107180000133E9E74008EBE74A08014608461146A3
:10719000E8E70146F0E72DE9F8430C4606461146BC
:1071A00020461546FFF7D5FF844239D3B5FBF0F2F0
:1071B000B4FBF0F10025B1FA81F44FF0004EC4F1B8
:1071C00020002EFA04FEC4F15F0C2B462C462F46FD
:1071D000DB1847EB070811EA0E0F18BF43F0010355
:1071E000934278F1000947464FEA44044FEA5E0EA5
:1071F0000FD39B1A68F1000744F00104002C0BDA4E
:107200003B4300D00134C0F1200333713460BDE84A
:10721000F883002CF2D1013801356545D8D1EFE76C
:1072200000200446EFE7F8B5048906460F461546E8
:1072300000200DB1B54218D132897168002306F0E3
:1072400031FA04F13A030344B3F5803F24BF01301F
:1072500080B2796820443A3000232022083180B27D
:1072600006F020FAC04380B2F8BD23462A89696837
:1072700006F018FAAB682D6823449CB2D9E72DE9D3
:10728000F8430D4681460321284603F037FD0646A4
:10729000022103F033FDB368032B074605D82846C7
:1072A0000021BDE8F84303F013BB01462A463046EF
:1072B000D6F80480FFF7B7FF0028F0D198F8004017
:1072C000892C08D8842C0AD9B36879684246484684
:1072D00001F03AFB03E06334E4B2012CF4D998F8EE
:1072E00000102B4640F20122032002F036F900285C
:1072F000D5D0BDE8F88338B50D46144600211A46AE
:10730000032303F013FC28B1436800221D705C7056
:107310009A70DA7038BD10B5044660B190F90C303F
:10732000032B0BD10268FFF77EFF50B1636840BAB0
:107330005880002010BD6FF00D00FBE76FF04C008F
:10734000F8E76FF00100F5E7002103F0C1BA000093
:1073500008B5044910220AF04BF9B0FA80F0400950
:1073600008BD00BFDA19030010B50A490822044617
:107370000AF03EF948B12378FF2B08D1607800F07D
:107380000F00831E5842584110BD0120FCE7002029
:10739000FAE700BFCA19030070B51E46CBB2002140
:1073A00015460246084602F0EDFF044620B928467D
:1073B000FFF7CAFF204670BD43681E710560F9E7FC
:1073C00038B50D460446D1E9003170B1B0F97221EB
:1073D0004A8000225BB9B4F8A03093420BD2284611
:1073E0007A21BDE8384003F073BA0246F0E79968A5
:1073F0001B680A44EEE7204602F012FB60B10B491D
:107400002B4640F20222012002F0A7F868B9284674
:10741000BDE83840FFF798BFB4F9720140F202228C
:10742000294602F06FF80028F1DD38BD0000FFFFAB
:107430002DE9F8430E46D1E9001405460A4600231B
:107440002ABB5BBAA380A379FF2B02D119BB3B23D4
:10745000A371E37913B94DBB4023E37104F108072D
:107460003E49102238460AF0C3F804F11809804654
:1074700078BB4846FFF76CFF0246D0B11022414668
:10748000384609F0C9FF0123E37534464FE09068A0
:1074900012680344D4E70B7B023BDBB2022BD6D845
:1074A0002F4AD35CA371FF2BD3D1D0E795F870316D
:1074B000D3E74946284602F0B7FC03460028E4D04B
:1074C00000F1100253F8041B47F8041B9342F9D152
:1074D000DBE7284602F0C9FA4846FFF739FF98B1C2
:1074E0000024284602F0C8FA002CCED003213046F2
:1074F00003F004FC28B143681B7803F0FD03852BDF
:10750000C3D06FF07C0022E03946284602F07CFCB4
:107510000028E5DB2844047D04F01F04103C18BF5C
:107520000124DEE703F01EFB98B12060044694F9C5
:107530000C30022B02D120680028F3D131462046BE
:1075400003F0B5F9002807DA831C08BF0020BDE866
:10755000F8836FF00B00FAE70020F8E7EA19030060
:107560006D19030080B590B01022002105A809F024
:1075700053FFAF4B0693AF4BAF481B88ADF820309D
:107580000821FFF79DF805A9022003F04FF9AB4F42
:1075900040F20523ADF80E3044F6BF7844F6D574BA
:1075A00001A8FFF78AF8BDF80630A342F8D8434592
:1075B00023D840F20222934200F0DB8031D840F21F
:1075C00001229342ECD1029E4FF0FF31304603F08E
:1075D00095FB054628B14368B3F9020002F03AFA78
:1075E000054673683BB1B268272A04D91B7803F0BB
:1075F000F003602B21D030462DE0A3F59F42403AA6
:1076000092B201219140394040F08881A34200F0BC
:107610008A8144F6D4729342C2D1029801F046F8AE
:10762000BCE7A3F20323012BBAD86FF0850303A9AB
:1076300001A80493FFF71CF8B0E7304603F092FA74
:1076400004460028D7D00222282103F0ADFA0023F7
:10765000237318B92046FFF777FE9FE7D0F8049010
:1076600099F8073023B97421204603F031F995E7E2
:10767000B9F8041099F806608BB249BA89B20BB90F
:107680003B2EE7D18442A36859D08B42204656D97D
:1076900003F0F2FA09F118094846FFF759FE70B9EC
:1076A0004846FFF761FE08B1002D57D1484602F069
:1076B0009AFC0546B0FA80F040090028CAD1292E6C
:1076C00050D03A2E50D0A6F11102534253419B00A4
:1076D00023733146022003F0D2F8002801DC3A2E51
:1076E00044D10121204603F099F94FF00109504996
:1076F00094F90C00234640F2012201F02EFF10B94C
:107700002046FFF721FEB9F1000F10D03A2E03D129
:107710000121204603F082F9234640F2012231463E
:10772000022001F01AFF10B92046FFF70DFE3A2E95
:107730007FF434AF21462846FFF7A1FD2EE7002253
:1077400083681A4490F90C30022B02D0006800289C
:10775000F6D1283A8A429DD2162185E7484602F0A2
:1077600042FCA7E70223B3E70323B1E74FF0000988
:10777000BDE7029E96F90C3001331AD17468B4F952
:10778000020002F067F90546304694F8049003F0D1
:10779000E9F909F03F09014600283FF42CAF03F056
:1077A000B9F8064696F90C30022B06D01621304661
:1077B0005BE74FF000094D46F4E77068204910225E
:1077C000183009F015FF0028F0D0304603F0CAF950
:1077D000044600283FF40FAF4668337EFF2B54D198
:1077E00085BB02F02AF900283FF434AF411E204641
:1077F00003F014F949F04009284602F01CF9054647
:1078000000283FF4CBAE204603F0ACF90646002832
:107810003FF420AF01462846FFF70AFE002827DA8A
:10782000B4423FF417AF3046FFF78EFD12E700BFBA
:107830000000FFFFD80E0020040F0020EFFB060021
:10784000EA19030001462846FFF7F2FD0028FFF67B
:1078500001AF002149F0400322460846FFF79CFD96
:10786000014600283FF49AAE2846FFF7A9FD95E6A9
:10787000002108464B463246FFF78EFD01460028A0
:10788000BAD02846FFF79CFDB6E71836304602F01E
:10789000AAFB8542824606D03046FFF765FD0028E8
:1078A00018BF4FF0000A3046FFF752FD10B9BAF189
:1078B000000F17D021465046FFF7BAFD0028FFF60B
:1078C000C9AE204603F03EF800287FF4C3AE184945
:1078D000234640F20122022001F03FFE00287FF4FF
:1078E0005DAEB7E609AB22462946304600F044FFBC
:1078F0000028FFF653AEBDF83C00C0F3041002F0C0
:10790000A9F821460546FFF793FD0028FFF6A2AE31
:107910009DF83E104B4622460DA89FE70298194657
:1079200001F0CEFA3AE6029800F0E6FE36E600BF35
:107930000000FFFF1FB50A4CB4F900305BB9094ADB
:107940000948CDE90132094A00924FF470710422CE
:10795000FFF79EF82080B4F9000004B010BD00BF0E
:10796000000F00203F170300440F00206575020040
:10797000F8B50C46174602232822002103F0D6F85A
:10798000064608B3456805F10800FCB1214604F13C
:10799000100351F8042B40F8042B9942F9D105F15A
:1079A0001800C7B1394607F1100351F8042B40F80D
:1079B000042B9942F9D1602200232A70FF226B70B8
:1079C000AB70EB70AA71EB713046F8BD1022214606
:1079D00009F022FDE3E71022394609F01DFD0123DD
:1079E00085F82730E7E7000070B5044615460E46D7
:1079F00009B9002070BDD1F8A430DB04F9D51749CE
:107A0000082209F0F5FD38B12378FF2BF1D1637816
:107A100003F00F03022BECD196F8710105F110026F
:107A200004F1080105F0D0FF10F0FF00E1D0A876C6
:107A30002B4604F1100254F8041B43F8041B944233
:107A4000F9D1B6F872311B0103F4F87343F4806383
:107A500043F006032B830120CCE700BFCA190300C3
:107A60002DE9F843054602F0BEFA044600284DD041
:107A700001F0FBFFB4F97211002000F01DFB98B17A
:107A80000368043318462A46214600F0F0F82946D8
:107A9000204602F0B9F921180B7D03F01F02102ACD
:107AA0000CD14EF6602812E084F89C00204601F0CC
:107AB000C1F92046BDE8F84301F0DEBF03F007023C
:107AC000013A012AF5D80133D4F898800B750501E5
:107AD00005F178060E4B0F48B3F900902644314665
:107AE000FFF7EEFA05F1160760190023C0E91E380A
:107AF000274444F6CF73A0F88230C0F88470A0F811
:107B0000809031460348FFF7A5FAD2E7BDE8F88335
:107B1000000F0020041300202DE9F3471F46D0F882
:107B2000A4300C46D904054603D4042002B0BDE8B5
:107B3000F08779780229F8D11278882AF5D1DB0705
:107B4000F3D590F8CC206B4600F1C40101F049FD5B
:107B50000828EAD1DDE90002B968FB689A4208BF4B
:107B60008842E2D1BB78012B41D0022B45D0CBBB60
:107B700004F118012846FE8802F046F9041E1FFA97
:107B800086F8D2DBB8F5807F2ED076BAB6B24EF644
:107B900060235E43A6F56A46603E2A192401137DE0
:107BA000214823F01F0343F0100304F178081375F4
:107BB000A8441E4B4146B3F900A004F11609FFF793
:107BC0007FFA28190023C0E91E36A94444F6CF7372
:107BD000A0F88230C0F88490A0F880A041461248F6
:107BE000FFF738FAB878A1E747F23056D5E704F145
:107BF0001801284602F0B8FAF4E7B5F9721104F159
:107C0000080000F059FA00F01FFA002000F03EFAD8
:107C100028B985F89C00284601F00CF9E2E704F148
:107C20001800FFF71DFFDDE704130020000F002000
:107C300013B58A784878412A34BF02230323984237
:107C400012D1CC88C87864BAC0F30013A4B20093F0
:107C50000831234600F00F0003F0D6F84EF66023FB
:107C600003FB04F002B010BD4FF0FF30FAE7F0B5AF
:107C7000074685B00C461546B1F9721100201E4624
:107C800000F01AFA45B3D4F8A430DA0424D518B3B6
:107C90000068B4F97221838EC3F304139A421BD196
:107CA0003146043005F041FDB0B1D4F8A430DB0713
:107CB00010D594F8CC2002AB04F1C401204601F0A9
:107CC00090FC082806D1002302AA0F21184604F0D0
:107CD000EAFD10B905B0F0BD0020009033462A46F9
:107CE0002146384601F0FCFAF4E72DE9F04101F1B4
:107CF00008070546B0F9721138461646984600F056
:107D0000A7F8044628B190F8363013F0010F08BFE9
:107D1000002495F87101414605F065FE00281ADB44
:107D200074B9B5F972110322384600F0DDF8044643
:107D300088B13378872B02BF838E23F008038386B4
:107D400094F83630DB0706D53378862B05D1A38E21
:107D500043F00803A386BDE8F081872BFBD0A38EF8
:107D600023F00803F6E730F9081FFEF74BBC0000CC
:107D7000054A106838B10368984219BF1A68026052
:107D80000021116018467047F414002090F8361056
:107D900011B9382209F040BB704770B5044610464F
:107DA0000E461546FFF7F2FF4CB123462A1D04F19B
:107DB000100153F8040B42F8040B8B42F9D1AB8E3F
:107DC00066F30813AB8670BD08B50B1D20B11946CC
:107DD000BDE8084005F0A9BC04491022184609F086
:107DE00007FCB0FA80F0400908BD00BFEA190300A3
:107DF00001490248FFF784B9677D0200041300209F
:107E00000148FEF785BA00BF201300200148FEF7A5
:107E100082BA00BF2013002070B50C4DAB8EC3F3A7
:107E20000413994206460C460AD12946FFF7CCFFB7
:107E300030B13046054A2146FFF7AFFF034870BD19
:107E400095F83630002BF4D00020F8E7BC14002061
:107E500008B50B4B93F8362042B19B8E13F4F87F94
:107E6000C3F3041204D019B1914201D0002008BD1F
:107E70000146044805F059FC0028F7D00048F6E711
:107E8000BC140020C014002010B590F8363023F048
:107E9000010300F1240180F8363004461048FFF752
:107EA0000FF910490A6822B113689C4206D1FFF706
:107EB0005FFF2046BDE81040FFF768BF13461B6810
:107EC0001868844202D09A42F9D1F2E7002BF0D030
:107ED00022681A600A68944208BF0B60E9E700BF95
:107EE00004130020F41400202DE9F84307468846C7
:107EF00002F00705FFF790FF002839D1FFF738FFA0
:107F0000814660B3284E044694F83630012B29D8B8
:107F1000A38E03F4C0632BBB2046FFF7B5FF3846A2
:107F200022464146FFF739FFA38E2B43A386012348
:107F300084F8363020463368B3B11B682360336859
:107F40001C60346060B9FFF713FF81450446DBD144
:107F500033685BB11B6803603368186034600020CD
:107F6000BDE8F8830020E6E72460EAE72060F5E753
:107F700090F83630DA0708D4828E22F007021543D3
:107F800043F00103858680F836300368002BE7D183
:107F9000054B1A682AB1126802601A6810601860EE
:107FA000DEE70060FBE700BFF414002038B50A46A6
:107FB0000C460546031D00F1140153F8040B42F86A
:107FC000040B8B42F9D1A88E2083C0F3041001F07A
:107FD00041FD04F1100290F8710105F10C0105F06A
:107FE000F3FC0028A8BFA07638BD0000F8B5154EF8
:107FF000346807460D4694B1A38EC3F30413994227
:108000000BD1211D05F091FB38B194F8363043F0C7
:10801000080384F836300B48F8BD0020FCE7FFF772
:10802000FBFE024630600028F7D029463846FFF7AD
:10803000B4FE326892F8363043F0080382F83630E6
:10804000E9E700BF28130020036810B504468BB190
:10805000011D0C48FFF734F8206890F8363023F003
:10806000080380F83630FFF791FE142200212046E5
:1080700009F0D2F9044B1A68A24204BF00221A6028
:1080800010BD00BF04130020F814002028B11430E4
:10809000074A904203D3002070470648F8E7036878
:1080A0001BB193F83630002BF6D11430F1E700BF46
:1080B0003C1300202813002008B5094B1B686BB146
:1080C00021B19A8EC2F30412914207D108B9044833
:1080D00008BD191D05F029FB0028F8D10020F7E79D
:1080E0002813002010B5124C2168B1B10B689B8E8B
:1080F00003F00703013B012B0DD80020FFF7C6FF5B
:1081000068B90846FFF7C2FF01B110B90020FFF7B8
:10811000BDFF20600146084610BD0846EEE7036833
:108120009B8E03F00703013B012BF2D8E6E700BF6B
:10813000F814002038B50D460446102200212846C8
:1081400009F06AF9124A12680023A24285F8203029
:1081500009D1DCB123689B8E03F00703013B012B9F
:1081600094BF0023012385F82130236805F1100115
:108170001A1D143352F8040B41F8040B9A42F9D13A
:1081800023689B8EC3F304136B8438BD2346EAE750
:10819000F81400202DE9F74F4FF0000A3A4E0192F3
:1081A000054688461F46544696F82420D6F800B067
:1081B000DAB9002C08BF34460AF1010ABAF1080FF7
:1081C00006F13006F0D174B12368002B46D1414648
:1081D0002846FFF721FE0146206000283ED13022CC
:1081E000204609F019F9002424E096F82520BA4227
:1081F000E2D10199301D05F0AEFAB842DCD3BBF8EC
:108200003420C2F304129045D6D10BF104091F4962
:108210001022484609F0ECF980B9B5B9302202FBCA
:108220000AF3194AD25892F8363043F0400382F8E4
:1082300036303446204603B0BDE8F08F5946284614
:10824000FFF7C2FD0028B7D0E7E705F1100255F8A7
:10825000041B49F8041B9542F9D1DFE72268414627
:108260002846FFF79AFD2046FFB250F8042B0199EB
:1082700092F8363043F0400382F836303A4605F043
:1082800089FA84F82570D5E73C130020EA19030029
:1082900010B590F824300446FBB90068D0B92046E8
:1082A0003022BDE81040002109F0B6B83033013A61
:1082B00004D09C42FAD019688842F7D1074A934209
:1082C000EDD390F8363023F0400380F83630FFF7D6
:1082D0005DFDE4E7024B0922E9E710BDBC14002074
:1082E0003C13002028B13030064B984203D30020C5
:1082F00070470548F8E790F82420002AF8D130307C
:10830000F3E700BFBC1400203C13002030B40B4640
:10831000021D00F1140452F8045B41F8045BA24210
:10832000F9D190F8252083F82020002183F821102E
:108330000268948EC4F304145C8490F8240004282A
:1083400003F1100003D130BC102209F065B8131DF1
:10835000143253F8041B40F8041B9342F9D130BC8B
:10836000704700002DE9F843194D00248046164659
:10837000274605F5C07995F824305BB14146281DA4
:1083800005F0E9F9B84205D995F8253083429CBF3C
:1083900007462C4630354D45EDD134B194F82430A4
:1083A000042B0FD1E38CDB070CD4FFF79BFE18B92D
:1083B00044B96FF0710003E03146FFF7BBFE0020C7
:1083C000BDE8F88331462046FFF7A0FFF7E700BF7E
:1083D0003C13002010B5044600F114010648FEF7D6
:1083E0006FFE94F8243023F0040384F824302046F0
:1083F000BDE81040FFF74CBF041300202DE9F843FF
:10840000044600F114011748FEF75AFE2368988EBF
:10841000C0F3041001F01EFB0546D8B100F11606AA
:1084200004F104094946304694F8257005F093F9A3
:1084300005F1260887424946404694BF94F82570C6
:10844000002605F088F9874209D91EB13146284631
:1084500001F08AFE2046BDE8F843FFF7BBBF464661
:10846000F4E700BF041300202DE9F8431F4613462C
:108470000A4601460020089EFFF78CFE04460028AD
:1084800039D090F8243007EA060543F0040380F859
:108490002430681C36D01D4B1868436901332DD039
:1084A00008F01AFD711C05461CD0194B1948B3F988
:1084B000009004F114084146FEF702FE0023C4E9CF
:1084C000053644F6CC731348E3832462A4F81C9069
:1084D0004146FEF7BFFDB21C04D07319013308BF3B
:1084E00001362E44FB1C0FD87B19013308BF01371E
:1084F0003D44C4E90A562046BDE8F88383685B68BA
:108500009847CFE72E46F4E73D46F2E7101B0300FD
:10851000000F00200413002010B50A4B9B6902468F
:10852000002013B94FF0FF3010BD5C6820445C8917
:108530008C4204D1002AF7D0DC689442F4D01B6846
:10854000EFE700BF0413002010B50A4908220446D3
:1085500009F04EF848B12378FF2B08D1607800F07D
:108560000F00831E5842584110BD0120FCE7002037
:10857000FAE700BFCA190300002102F0A9B908B543
:10858000FFF766FC28B190F8363013F0010F08BFF2
:10859000002008BDF8B50446174606981A460D4651
:1085A000A9B191F871310A2B11D1134604F11001D0
:1085B00054F8040B43F8040B8C42F9D1B5F872312E
:1085C0001B0113830023937601263046F8BD78B94A
:1085D00029462046FFF708FA06460028F4D1D5F8C8
:1085E000A41011F4805107D03846FFF7C5FFECE71F
:1085F0001146FFF7DBFCE7E70DB1B5F97211022276
:108600002046FFF771FC0028EED0002FDDD0762148
:10861000384602F05DF9D8E738B505685DB195F8E0
:1086200036301B0707D5FFF70FFD00242046FFF764
:1086300059FE044600B938BD23689D42F6D1FFF7C4
:1086400027FEF3E72DE9F843DFF834801F460B4B94
:10865000144605460E4640461146B3F90090FEF713
:108660002FFD0023C4E900376681E560A4F8089077
:1086700021464046BDE8F843FEF7ECBC000F002061
:108680000413002038B5084CFFF7BAFBA16929B1E3
:108690000D682046FEF714FD2946F8E7FFF7A8FB12
:1086A000BDE83840FFF7B2BB0413002038B50446DC
:1086B000002501F0DAF90E49A4F89C50204601F09B
:1086C000A9FC402220460B4900F020FD4FF47A71AE
:1086D000284607F0CDFA04F16802034644F6C37158
:1086E0002046FFF7AFFF2046BDE8384001F0C4B98F
:1086F0009A190300CA19030038B5044604F1160597
:1087000001F0B3F90F4804F16801FEF7D9FC2846DF
:10871000FFF71AFF18B12946204601F025FD04F1A4
:1087200026052846FFF710FF18B12946204601F01C
:108730001BFD2046044901F0C3FC2046BDE838403B
:1087400001F09AB9041300209A19030010B50446E9
:1087500001F08BF94FF47A73C4F8983094F89E3096
:1087600043F00103204684F89E3000F058FF204675
:10877000BDE8104001F080B92DE9F0470C468CB0FF
:108780000546084617469A4601F06FF9FFF738FB91
:10879000002C3ED0B4F972112846FFF7F0FE0646D1
:1087A000002838D0B0F83480C8F304182846FFF702
:1087B000CBFE00285FD1B8F1000F5CD0204601F05D
:1087C0005BF9404601F046F90446FFF71FFB2046DF
:1087D00001F04BF9FFF714FB002C4ED0B4F97211E5
:1087E0002846FFF7CCFE0646009653463A462146F9
:1087F0002846FFF7CFFE00280CBF6FF07506002655
:10880000FFF704FB204601F037F930460CB0BDE815
:10881000F0872146C0E72846FFF796FEB0460028BD
:10882000C4D1B1464846FFF75DFD814678B9B8F13D
:10883000000F2CD098F824305A0728D5B8F82630E5
:10884000DB0724D5D8F80030B3F83480ACE709F161
:108850000401284604F07FFF99F825309842E1D3BF
:10886000B8F1000F05D098F825209A4238BFC846C5
:10887000D8E7C846D6E7002CB6D11FB96FF0750609
:108880000024BDE77621384602F022F8F6E703AA75
:1088900039462846FFF766FD2A490646102207A8F2
:1088A00008F0A6FE00284AD12846FFF74DFEB8B9C9
:1088B0001FB17221384602F00BF86FF071069FE786
:1088C000B4F972219A4208D0204601F0D5F8B4F9E3
:1088D0007221BDF82E309A4213D1B4F972111FE003
:1088E000002EE5DB07AA05F1100C2868696813461D
:1088F00003C3083565451A46F7D1BDF82E30002C64
:10890000DED1BDF92E0001F0A5F80446FFF77EFA8E
:10891000204601F0AAF8FFF773FA002CDDD12146BA
:1089200007A8FFF72CFE534600903A46214607A8B9
:10893000FFF730FE002808BF6FF0750660E7002ED5
:10894000DBDAB5E7EA1903002DE9F04F154689B0E7
:10895000984604460F4601F088F8FFF751FA2B7845
:10896000872B00F05481882B00F01F82862B40F06B
:10897000AB8107F108094846FFF7E6FD002800F043
:10898000A381FB79FF2B40F09F816B78002B40F097
:108990009B81B8F10F0F40F29781D4F8A430DA042C
:1089A00007D4EB885BBA9BB242F22832934200F2C2
:1089B0008B81A8F1100B05F1100632465B46002BA7
:1089C00059D1B5F80680B4F972111FFA88F34846F8
:1089D000002B5CD0FFF70AFB8146002800F0748171
:1089E00098FA98F84FF47A731FFA88F803FB08F89E
:1089F0004346021D44F6CD71FFF724FE2B790BB1DF
:108A000084F87031EB6813B11BBAC4F89830B9F12F
:108A1000000F13D0D4F8A430DB040FD5237D13F05E
:108A2000EF0F03D004F11600FFF71AF8637D13F07F
:108A3000EF0F03D004F12600FFF712F8BBF1000F8F
:108A40002FD1B9F1000F00F03F8104F16805A24871
:108A50002946FEF735FBD4F8A430DE0440F134811A
:108A60004FEA980303EB43032A4644F6C3712046BA
:108A7000FFF7E8FD28E19845C0F0268151780029EC
:108A800000F02281A3EBC10302EBC10297E7FFF7DD
:108A900013FB08B1FFF7C0FD4FF0FF384FF000099E
:108AA000ACE73378052B1BD009D8012B11D0032B51
:108AB00024D07378ABEBC30B06EBC306BEE7222BC7
:108AC000F7D131462846FFF7B3F8804528BF8046E6
:108AD000EFE733462A4639462046FFF706F9E8E72E
:108AE0007378012BE5D12B78862BE2D173681BBA02
:108AF000B3F5A06FDDD3A4F8A030DAE77368049370
:108B0000B36805937378042B05D04FF0FF33984575
:108B100028BF9846CDE72B78862BF6D106F11003B7
:108B200018460293FFF710FD0028EED1049B059A2A
:108B30001BBA92FA82FA5345E7D3D4F8A410F2781C
:108B4000C80401D51106E0D4500606D5B2780299C2
:108B50000393204600F0DAFA039BF2783F2AD4D937
:108B6000B27803927268E2B9924613E09AF8243020
:108B700059070FD59AF82530039A93420AD10299E2
:108B80000AF1040004F0E7FD039B984202D350462B
:108B9000FFF734FC5046FFF7A5FB82460028E5D1DD
:108BA000B3E7049A013207D04C4A93429ABF4FF47C
:108BB0007A7253436FF00103059A013208D0474A95
:108BC00092459ABF4FF47A7202FB0AFA6FF0010ADB
:108BD000CDF800A0DDE90212B4F972010493FFF7A9
:108BE00043FC002891D096F90320F178049B002AD9
:108BF000BEBFC28C42F00102C2844A0642BFC28C90
:108C000042F00202C284534528BF53467FE7FB79F6
:108C1000FF2B59D16B78002B56D1B8F1170F53D9D0
:108C20002B7AFF2B50D007F108092D491022484616
:108C300008F0DEFC38B92B490D2207F1180008F0C6
:108C4000D7FC002840D105F1080B5946204601F019
:108C5000DBF8031E029337DBA8F1180605F1180AAA
:108C60005246334673B91E4903931022484608F012
:108C7000BFFC039B78B900934A462146584600F052
:108C80007FFB21E098451FD35178E9B1A3EBC103E5
:108C900002EBC102E6E7D4F8A430D80705D4B4F952
:108CA000721103224846FFF71FF9EEB9029B2344D5
:108CB0001B7D990672D5B4F972115846FFF75FFC17
:108CC000054610BBFFF758FCFFF7A0F8204609B097
:108CD000BDE8F04F00F0D0BE0413002037894100FA
:108CE000EA190300BA1903009AF80030012B05D1E4
:108CF00053462A4639462046FEF7F7FF9AF80130D8
:108D0000A6EBC3060AEBC30ACFE73B7EFF2B1FD1BE
:108D100094F8CC7004F1C4013A4606A808F0CEFBE2
:108D2000B7B13246394606A800F0D6FA0646002802
:108D3000C8D040213246584600F07AFA074648B17A
:108D40004A460021FEF714FE804628B93846B9E7A6
:108D50006021EFE73046B5E74368FF22DA71002370
:108D60001A461946184601F00DFB064608B940465A
:108D7000A8E742687CB9234653804FF47A71C6F85D
:108D80000080002006F074FF05F12402034644F63B
:108D9000C27130466CE6B4F97231EDE73B7E009665
:108DA000A3F1FF025342534166E7FB79FF2B8BD1BE
:108DB0006B78002B88D1B8F1170F85D92B7AFF2B50
:108DC00082D03B7EFF2B03D12B795B063FF57CAF36
:108DD000A8F1180905F1180632464B46F3B9B4F963
:108DE000721105F10800FFF7CAFB804600283FF426
:108DF0006BAFB9F1000F3FF467AF3378212B07D188
:108E0000CDE9006833462A4639462046FEF784FEFF
:108E10007378A9EBC30906EBC306EAE79845FFF4AC
:108E200053AF517800293FF44FAFA3EBC10302EBDE
:108E3000C102D3E738B5044600F017FE44F6C3710B
:108E40002046FFF769FBD4F8A430DA0423D594F860
:108E50009C30022B42F210750AD9033B4FF47A6220
:108E600002FA03F31D444EF660239D4228BF1D46BF
:108E7000A8420BD91149204600F0FAFA94F89C3028
:108E8000092B0BD9D4F8A430DB040DD42046BDE85F
:108E9000384000F0F1BD4FF47A65E9E70133DBB209
:108EA000022B84F89C30EDD82B4604F1680244F67E
:108EB000C3712046FFF7C6FBE8E700BF8A1903002D
:108EC000F8B50D460446FEF79BFFA5F59F414239D4
:108ED0000D2914D8DFE801F0071713131313131328
:108EE00013131B69136D3549234640F202220220F9
:108EF00000F033FB18B90921204601F0E9FCBDE878
:108F0000F840FEF783BF2046FFF794FFF7E723689A
:108F1000988EC0F3041000F09DFD05460028EED0A9
:108F2000274B1868436901330FD007F0D5FF064679
:108F3000284600F09AFDA36AB3420AD82046FFF7FC
:108F40005DFA284600F098FDD9E783685B6898478A
:108F5000EDE7E36AB342F4D8271D394605F1160060
:108F600004F0F9FB94F8253083429FBF2B7D23F05A
:108F70001F0343F008032B75394605F1260004F062
:108F8000EAFB94F8253083429FBF6B7D23F01F03DB
:108F900043F008036B75A36A04F114029B1B44F6AB
:108FA000CC712046FFF74EFBCBE72046FFF734FBA2
:108FB000A5E72046FEF754FDA1E700BF0000FFFF34
:108FC000101B03002DE9F04387B016460C46102213
:108FD0000021054602A81F46DDF8389008F01CFA6B
:108FE000802EB04628BF4FF080085FFA88F22146F5
:108FF00002A804F0CFFB2549102202A808F0F8FAD5
:1090000000283FD022490822204608F0F1FA002823
:1090100038D02378FF2B35D0B94533D8FEF7F0FE92
:109020002146CDF800903B4642462846FFF71CFA01
:10903000044630B9FEF7EAFE6FF00B0007B0BDE85A
:10904000F08328B200F006FD054618B9FEF7DEFEF3
:109050000020F3E700F009FDD5F8A430DA045EBF84
:10906000E38C43F00103E38495F89E30DB0705D5DC
:109070007F2E9EBFE38C43F00203E384284600F07A
:10908000FBFCE3E76FF01500D8E700BFEA19030027
:10909000CA1903002DE9F0410C6807460E46154633
:1090A000FEF7AEFE2046FFF71DF9044630B3D4F8B4
:1090B0000080B8F1000FF5D094F824305B07F1D5AB
:1090C0002FB1B8F83430C3F304139F42EAD194F8B7
:1090D00025302B7410220021284608F09DF994F8C1
:1090E0002520211D284604F055FBB8F83430C3F381
:1090F00004136B82A36A6B61E36AAB61FEF786FEC1
:10910000201E346018BF0120BDE8F081F0B5044690
:1091100085B00E46174600211022684608F07CF9FB
:10912000D4F8A430D90406D4B4F97211234805F058
:109130000DF805B0F0BDDA07FBD594F8CC2002ABF2
:1091400004F1C401204600F0C6FA0028F1DB3A46DB
:109150003146684604F01EFB6946204600F054FE86
:10916000051E29DA07233A466946204600F0CAFD63
:10917000051EDEDB0127D4F8A430DB04D9D5104965
:109180000822304608F034FA38B13378FF2B0BD17F
:10919000737803F00F03022B06D16219137D23F0BD
:1091A0001F0343F010031375002FC2D004EB05100A
:1091B0001630FEF755FCBCE70027DCE74417030038
:1091C000CA19030038B504461846FEF7D1FB054618
:1091D00068B14368FF22DA7100231A46194618461F
:1091E00001F0D0F828B92946284601F093FB002069
:1091F00038BD43680CB1B4F972415C800560F7E793
:1092000010B518230446002208468721FEF773F89C
:1092100068B14368216800221A715A719A71DA7133
:109220006268DA609960A168E2685A61196110BDEC
:1092300038B504460D461046182300228821FEF753
:109240005AF878B14368002225F01F051D71DA71C4
:109250009A715A7121686268DA609960A168E2685F
:109260005A61196138BD08B5002208238521FEF72F
:1092700042F828B1436800221A715A719A71DA7162
:1092800008BD10B5002304461046CA1D02F0F802BE
:10929000194601F04BFC20B1426814708368DB086A
:1092A000537010BD70B506460D4618460231FFF7E3
:1092B000E8FF044658B1436882680233023A00214D
:1092C000184608F0A9F82A46314608F0F7F8204673
:1092D00070BD0123FFF7E6BF0223FFF7E3BF0000E5
:1092E0002DE9F7430746154608460A9C0E46984660
:1092F00000F0BBFB35B92A463946304600F094FDF4
:109300000546B8B11C491022284608F071F988B109
:1093100096F8CC9006F1C4014A46684608F0CEF8AB
:10932000B9F1000F06D0224649466846FFF7D1FF43
:10933000E8B1044638462146FFF762FF0746B0B160
:109340000346424629463046FFF73CFF044668B1D3
:1093500003460A4940F20222022000F0FEF830B132
:10936000304600F089FB03B0BDE8F0833C460021A5
:10937000204601F0ADFAF3E7EA1903000000FFFF11
:109380002DE9F04387B00E468046084615469946BB
:109390000E9C00F06AFB4146304600F035FD071E8A
:1093A0005BDB30491022284608F022F928BB2E4BFF
:1093B00002AD03F1100C186859682A4603C208333D
:1093C00063451546F7D1002596F8CC9006F1C40107
:1093D0004A46684608F072F8B9F1000F3AD02246C2
:1093E00049466846FFF778FFB8B337443B7D9B0694
:1093F00001D445F0200504460FE02A4602AB05F1F2
:10940000100C106851681D4603C5083262452B4692
:10941000F7D14025B9F1000FD6D129462246404662
:10942000FFF706FF0546C0B1034602AA00213046F9
:10943000FFF7C8FE044678B103460C4940F2022209
:10944000022000F08AF840B1304600F015FB07B06A
:10945000BDE8F0832046CEE72C460021204601F0EF
:1094600037FAF1E7EA1903009A1903000000FFFF39
:10947000224B2DE9F341002914BF88469846054642
:1094800000F0F3FA00224146284600F0CDFC0746E2
:10949000A0B195F8CC4005F1C4012246684608F019
:1094A0000DF864B1214600226846FFF712FF04461A
:1094B00028B90021204601F00BFA17E004462046A7
:1094C000FFF7D1FE06460028F3D003464246394650
:1094D0002846FFF777FE044670B10346084940F27C
:1094E0000222022000F039F80028E2D0284602B01B
:1094F000BDE8F04100F0C0BA3446DAE78A1903004B
:109500000000FFFF07B5019101466846ADF8022053
:10951000FDF792F803B05DF804FB07B50B46114662
:10952000027A32B1012A0FD06FF08B0003B05DF8E0
:1095300004FBB0F90C001A46FFF7E4FF0028D4BF83
:109540006FF004000020F1E7019100226946C06835
:10955000ADF80230FCF7ECFEF0E72DE9F0410446EF
:10956000884617461E4601F02BF94146204601F079
:1095700086F9054648B14146204601F07BF9691E4F
:109580000446304601F04AFA24B901F035F928467C
:10959000BDE8F081394632462046FFF7BEFF011E86
:1095A00002DA304601F094F9204601F07AF90446D7
:1095B000EAE713B590F87131043B012B0FD88068AE
:1095C00003680DF106025C6905210223A047BDF87E
:1095D0000630082B0CBF0320022002B010BD022071
:1095E000FBE730B41D46D0F8A430DB07044612D5A3
:1095F00090F8710104280AD1022A08D1A0680368F2
:109600005C692A46A446082330BC032160472B46E8
:1096100030BC04F086B96FF0850030BC70471FB5D0
:1096200090F87131052B044616D0082B14D0042B6A
:1096300018D10823ADF802300023019303930523CA
:109640008DF804300DF1020302930223ADF80C30C3
:10965000436801A91B699847D4F8A43043F48053A8
:10966000C4F8A43004B010BD37B504468068036860
:109670005D6994F87131043B072B1ED8DFE803F0D5
:10968000041D041D04041D0AD4F8A43043F480739F
:10969000C4F8A43002230DF106021121A8474FF4AB
:1096A000A063A4F8A030BDF80630B3F5A06F28BFC2
:1096B0000023A4F8CE3003B030BD02230DF1060222
:1096C0001121A8470028ACBFBDF806304FF6FF7344
:1096D000A4F8A030EFE710B4D0F8A440E40705D513
:1096E00090F871015DF8044B04F02BB96FF0850020
:1096F0005DF8044B70471FB500240394ADF80C309F
:10970000436801941B698DF80410029201A99847DF
:1097100004B010BD50F8A80C03681B69184700007E
:1097200008B50449102207F063FFB0FA80F0400941
:1097300008BD00BFEA19030010B50A490822044613
:1097400007F056FF48B12378FF2B08D1607800F06E
:109750000F00831E5842584110BD0120FCE7002035
:10976000FAE700BFCA19030070B585680446FFF721
:1097700020FF2B6801465E6904F1C40208232846D5
:10978000B04710F1860F09D0D4F8A430002843F078
:109790000103C4F8A430C8BF84F8CC0070BDF8B58C
:1097A000044608460E461546FFF7BAFF98B95DB164
:1097B00004F1360503270024314605EB041003F0BD
:1097C000B4FF28B12046F8BD04F116050227F2E7E0
:1097D0000134BC42F0D14FF0FF30F4E770B50646DB
:1097E0000D4662B100F0A8FF04467CB1084804F0C1
:1097F000E1FC28460C21BDE8704001F069B800F09A
:1098000067FF0446304600F07BFFEEE770BD00BF07
:10981000C31703000378FF2B10B5044603D140782B
:1098200000F00F0010BDFFF787FF60B9208840BA35
:1098300020F03F000004000C4FF6C06398420CBFBC
:1098400005200E20EEE70220ECE70000D0F8C03043
:1098500070B504460D46164633B1324629462046B9
:10986000BDE87040FFF7BABF62B9D0F8D4304BB151
:1098700000F02AF82946204600F02AFF08B31148D4
:1098800004F098FC636829465B6820469847011EEF
:109890000BD008DA11F1100FDFD049422846BDE89D
:1098A000704001F015B80021F8E7C4F8C0500DB1C0
:1098B0002D68FCE72EB1D4F8A43043F40033C4F88B
:1098C000A43070BDF7170300D0F8D43010B50446AB
:1098D0007BB11A685968C0F8D42000221A605A6017
:1098E00039B10122FFF7B2FF2046BDE8104000F079
:1098F00007BF10BD37B5846841B904F1B00104F168
:10990000A80003B0BDE83040FDF73EBB042902D1FA
:1099100004F1B801F3E7052905D006290DD0022985
:109920000DD003B030BD134BCDE90034124B684667
:10993000B3F90010FCF76AFEF3E7104BF4E7636835
:1099400020469B68984705462046FFF7BDFF002D3F
:10995000E7D00B4995F90C002B4640F20122FFF7A6
:10996000FCFD01460028DCD1284603B0BDE83040AC
:1099700000F0AEBF0000D44F000F00200000D54F14
:109980000000FFFF38B5A0F1B8040021A06803680B
:109990005B689847D4F8A4200346002122F40035E0
:1099A000002BD4F8C000C4F8A450C4F8C01003DAE7
:1099B00013F1100F04D05942BDE8384000F088BFC1
:1099C0000146C2F340422046BDE83840FFF706BFDB
:1099D000F0B589B01F46109B436000240F9B836045
:1099E000C0E90344CDE905040D4606A80121164649
:1099F000FCF772FE0E9B029305AB0193074B00939D
:109A00003A46234631462846FDF742F8012106A88A
:109A1000FCF762FE079809B0F0BD00BF899A02000A
:109A200090F871310B2B9DBF4FF43760D84000F098
:109A300001000020704704F0C5BE10B50024204688
:109A4000FFF7F9FF08B9204610BD4368002BF7D097
:109A50000134F5E710B504460020FFF7ECFF18B11C
:109A6000B0F97231A342F8D110BD20B1436813B1EF
:109A70000C30FCF74DBC704720B1436813B10C307B
:109A8000FCF749BC704700002DE9FF410468DFF88E
:109A900014810546002640F205232046CDE90066E4
:109AA000ADF80230FFF7E1FFB8F80030A4F87231EA
:109AB000384BC4F8B430384BC4F8BC30374B1B6853
:109AC000C4F8AC30102104F1F000C4F8A860FCF731
:109AD000F7FD636820461B689847A860281DFCF7BF
:109AE0002FFEAA68B24204F1A80748DB2046FFF720
:109AF000C3FF41F233263846FDF75CFA054648B904
:109B000002A8FCF7D7FD002809DC48F20100FCF7A9
:109B10003BFFF0E76B68002BEDD09847EBE7BDF813
:109B20000A30B3F5017F27D00FD840F202229342CA
:109B300011D040F20322934213D063685B69002B7B
:109B4000D9D002A920469847D5E7B342F5D120469F
:109B5000FFF7BAFECFE703992A462046FFF776FEC5
:109B6000C9E763681B6903992046984769460190D5
:109B700002A8FCF77DFDBEE76368DB68F3E7B8F891
:109B80000010074809B204F0E1FA304604B0BDE81D
:109B9000F08100BF15970200859902004C0E00204D
:109BA0002F180300D80E00202DE9F8430E46054675
:109BB000FFF75BFF3378112B0CD8062B0FD9073B2F
:109BC0000A2B0CD8DFE803F01B7F200B4A610B0B3C
:109BD0000B0B8D00402B0BD0412B00F08B80A86825
:109BE0007268036831785C693389A04704462FE0C6
:109BF0002846FFF715FF73681870012428E0736882
:109C000095F870211A70F8E73489736804B32C7DD5
:109C10008CB105F11602194605F1260052F8044BE5
:109C200041F8044B8242F9D13289102A03F1100322
:109C30004FF010040CD96A7D52B105F1260205F1EE
:109C4000360152F8040B43F8040B8A42F9D1103460
:109C50002846FFF711FF2046BDE8F883726805F13A
:109C6000130305F1150000243189A142F0DD834280
:109C700003D114F1860FB2D0EAE713F8011F0029CF
:109C8000F2D002F8011B0134EEE7D6F8048005F1AA
:109C9000360705F1660900243389A342D8DDB945AA
:109CA000D6D03846FFF73CFD07F1100348B94246CD
:109CB00057F8041B42F8041B9F42F9D1103408F1F5
:109CC00010081F46E8E7D5F8A4207368D20786D5A8
:109CD00095F8CC2005F1C4012846FFF7FCFC0446AA
:109CE000C7E774887368022C7FF479AFB5F8A020B9
:109CF0001A80ADE7D5F8A4307268C3F3002313705F
:109D00007BE700002DE9F0471F468AB004460E4667
:109D10009146FFF7AAFE07F01F03072B08BF07F0C5
:109D2000F807314604F1160008BF47F0010703F0B9
:109D3000FCFCB8B9257D3146003D04F1260018BF72
:109D4000012503F0F2FC6D42804688B995B1637D30
:109D5000002B4AD02046FFF78FFE6FF00B000AB0B1
:109D6000BDE8F08700252046FFF786FE2846F6E787
:109D70000125F8E70546D4F8A430DB040BD42822EB
:109D800031461F48B4F972A103F020FD5146024646
:109D90001C4804F0DBF9611904EB05130F7532461A
:109DA000163306F1100052F8047B43F8047B82421C
:109DB000F9D10B7D03F01F03102BD4D100230293A4
:109DC000B4F9720103AA02A9FFF764F9074670B952
:109DD000B8F1000FC7D14FF0FF330093B4F972010F
:109DE0004A463146FFF7EEF8BDE70125C3E73146A5
:109DF00003A803F0B0FC484528BFB846E0E700BF21
:109E0000FC1400204F18030038B504460D46FFF738
:109E10002CFE294600222046FFF7C1FC05462046BD
:109E2000FFF72AFE284638BD2DE9F04F04468FB0D3
:109E300017460191FFF719FE257D002D00F0A9803E
:109E40006A0740F0A580002F00F0A68004F11600FC
:109E5000FFF772FC00280BBF002580254FF0FF366E
:109E60000026637D002B00F0A1805B0740F09E8000
:109E7000002F40F0948045F040057642002701987D
:109E8000ADF81470FFF7C6FC04F116084FF0FF316F
:109E900002460DF1140943460091BB468BF00701C1
:109EA000012000FA01F129422BD0019903921846B2
:109EB0009A46029303F039FC00285BD1029B1846B6
:109EC000FFF7A8FC039A99F80010029B824276D112
:109ED00011440F31C8B204F1140189F8000011F8DF
:109EE0000B1001F01F0108291CBF013089F8000088
:109EF00099F800100098B94288BF5846009088BF72
:109F00000F4609F101091033BBF1000F54D04FF097
:109F100000094D4605AB5B5DBB4221D1019940462E
:109F200003F019FC029082464046FFF705FC00282A
:109F300056D106908346B4F9720107AA06A9FFF725
:109F4000A9F8002843D1BBF1000F04D0029B5B4568
:109F500028BF5B469A46D1453CBF5FFA8AF9009517
:109F600008F110088DB3009B002B06DB04EB0313F4
:109F700003F1160ABAF1000F03D104EB061606F13D
:109F8000160A2046FFF778FD50460FB0BDE8F08F67
:109F900000254FF0FF3664E780253E4661E704F177
:109FA0002600FFF7C9FB00287FF465AF002E3FF4C1
:109FB00065AF4FF0000AE4E74FF0010B6EE73CBFDE
:109FC000101A0F310844C0B285E70125A2E74146C7
:109FD00007A803F0C0FB584588BF9DF82CB0AAE73E
:109FE0004FF0400BB2E738B5054600242046FFF796
:109FF00022FD044660B100222946FFF7D0FB00286D
:10A0000006DA012229462046FFF7C9FB0028EDDBCE
:10A01000204638BD2DE9F34105466A4690F87101A6
:10A020000E4603F0F0FC04462846FFF71EFD002C08
:10A030001DDDA3B26A466E212846FFF75CFB10F1D6
:10A04000860F044601D0002814DB05F136080027EE
:10A050004FF0FF343146404603F067FB70B12846AD
:10A06000FFF70AFD3C46204602B0BDE8F08114F13E
:10A07000860FEAD02846FFF7FFFCF4E7621C05D103
:10A080004046FFF74DFB002818BF3C460137032F21
:10A0900008F11008DED1631C05D12846FFF7ECFC5F
:10A0A0006FF00B04DFE705EB04133146363306F19E
:10A0B000100251F8040B43F8040B9142F9D1D9E78F
:10A0C0002DE9FF4704466A4690F871018A4603F07D
:10A0D0009AFC051E02DA15F1860F2FD12046FFF7F4
:10A0E000C4FC002704F13608B9464FF0FF36002DB6
:10A0F00013DD4046FFF714FB78B994F8710102AA0A
:10A10000414603F080FC854207D12A46694602A8F1
:10A1100007F06EFA08B909F101094046514603F00B
:10A1200004FB002818BF3E460137032F08F1100832
:10A13000DDD1002E05DA2046FFF79EFC04B0BDE815
:10A14000F087B9F1010F05D1ABB26A466F21204605
:10A15000FFF7D1FA04EB061010220021363007F089
:10A160005BF9E8E7000000002DE9F04F2DED028BD0
:10A170009FED298B8BB04B7B8DF815304FF080799C
:10A18000CB89CDF810904FF0FF0A04468DED028B7D
:10A190000E468DF814A0ADF81630FFF766FC04F1FA
:10A1A000160504F1140804F1360B01273146284640
:10A1B00003F0BBFAC0B1002188F800101022284635
:10A1C00007F02AF910355D4508F10108EED11FB1FD
:10A1D00002A92046FFF774FF2046FFF74DFC0BB0A5
:10A1E000BDEC028BBDE8F08F8DED068BCDF8209095
:10A1F0008DF824A06A7B8DF82520EA89019002A9B8
:10A2000006A8ADF8262003F090FA019B002818BF9D
:10A210001F46D7E7AFF30080FF02000000000000F8
:10A2200070B50E460546FFF720FC33781B2B11D87E
:10A23000062B11D9073B142B0ED8DFE803F01F0DB6
:10A2400025350D3F440D0D0D490D0D0D0D0D0D0D59
:10A250000D0D5E00412B43D0A86872680368317809
:10A260009C693389A047041E23DD3378052B57D81A
:10A27000012B1ED92846FFF777FA1AE073681B787E
:10A2800085F87031012414E07288716802F0E003EF
:10A2900043F01003120A2846FFF734FD041E07DAC4
:10A2A00014F1860F05D1D7E771682846FFF75CFFE8
:10A2B00010242846FFF7E0FB204670BD7168284651
:10A2C000FFF7A8FEEAE771682846FFF7F9FEEFE717
:10A2D00074887368022CBFD11B88A5F8A030E8E70A
:10A2E0007268D5F8A4301278012A0CBF43F4807349
:10A2F00023F48073C5F8A430C4E77268D5F8A4309D
:10A300001178A86801290CBF43F4803323F480330B
:10A31000C5F8A43003681B219C693389A047B1E7C5
:10A32000572BC6D12846FFF79FF9C2E737B5144B24
:10A3300004468068C0E901340368DB689847002858
:10A340001BDB204604F02CFAA06803680DF106021E
:10A3500028215D690223A847BDF8063084F87131D1
:10A360002046FFF781F92046FFF7FEF940232046FB
:10A3700084F87031FEF7EAF9002003B030BD00BF69
:10A38000F59802002DE9F041174603F108020A444E
:10A390000E46002180461C4608464FF0FF3300F071
:10A3A000C5FB0546F0B140680022428082804FF430
:10A3B000004206704470C280B8F1000F05D026B18B
:10A3C00032464146083007F079F85FB154B1686809
:10A3D0004378A34206D1037808332246394618440D
:10A3E00007F06CF82846BDE8F081002100F070BA53
:10A3F000F0B5856891B06C8C6B8AADF8183004F0BC
:10A4000028040E4681B391F90C30013344D14968D8
:10A410000B79DF0654BF44F0010444F011043F2BD4
:10A420009BBF0B7891F801C01D4B083394BF5B189C
:10A430004FF0020C22071BD505F116010822A87F58
:10A44000471CAF77CDE903400AAFBDF81800ADF85F
:10A450000800ADF80400CDF800C0384602F0EEFC6C
:10A4600078B93046FFF7C1FF6FF0150011B0F0BDAD
:10A470000A780AB10831E2E790F8CC2000F1C40173
:10A48000DDE73368CDE907372B68C0B209901B6858
:10A4900007A928469847E9E76FF04C00E6E700BFB8
:10A4A000881903002DE9F04F866833689C68002303
:10A4B00087B005461A4619463046A0470228074687
:10A4C00040F3A980002302461946184600F02EFBEF
:10A4D0003368044650B99D68014603463A46304603
:10A4E000A8470024204607B0BDE8F08FD3F80880C5
:10A4F00041683A4601AB3046C047071E03DC2046A0
:10A50000FFF773FFEDE7D5F8A430D9031DD500237D
:10A510001A4619461846FFF735FF0028EFD0436862
:10A520009DF806205A71BDF80420DA800DB1B5F906
:10A5300072515D8023461A461B68002BFBD11060C8
:10A540003946204600F098FBCCE7606802F0FEFC3C
:10A55000D4F804B081460028D1D08742CFD36A46D0
:10A5600004A9584602F06FFD6A46824602A9584681
:10A5700002F01FFDBAF1000FC1DB0028BFDDC1B240
:10A580005FFA8AF304AA02A8FFF7FCFE80460028BF
:10A59000B5D0BAF1020F43680AD19DF810209DF89A
:10A5A00011100A40FF2A02BF1A7962F07F021A7165
:10A5B0009BF80020D20642BF1A7942F010021A71AD
:10A5C0009DF806205A71BDF80420DA800DB1B5F966
:10A5D00072515D80336804F10C025D691921012319
:10A5E0003046A84749460022204600F0DDFA0146E1
:10A5F00020B92046FFF7F9FE404681E783682046F0
:10A60000FF1A00F087F923461A461B68002BFBD17E
:10A61000C2F8008094E700287FF763AF33689C6836
:10A620000023024619463046A0475AE71FB5054C9D
:10A630000294079C0194069C0094FFF7C9F904B0AA
:10A6400010BD00BF7019030013B50C4C0823A38183
:10A6500005F066F9204604F08FF804F1280005F0B3
:10A660006BFA074B00930749019402234FF4607281
:10A670000548FFF7DBFF02B010BD00BF2415002026
:10A68000F4180300101700209C150020FFF7DCBF12
:10A6900038B5012105460B48FCF71EF80A4A00238D
:10A6A00052F83300D90038B9084C0C4465600548AD
:10A6B000FCF746F8204638BD0133102BF0D10024BA
:10A6C000F5E700BF101B0020941A0020901A00200C
:10A6D00010B504460846FFF7DBFF70B100230360A6
:10A6E000D4F8D43033B11A461B68002BFBD110606C
:10A6F000002010BDC4F8D400FAE74FF0FF30F8E7AF
:10A7000041F2332313B5A0F8DA30EFF3108472B6B8
:10A71000B0F97231009300F1E00100F1D80305486F
:10A7200041F28832006806F05FFD84F3108802B0C1
:10A7300010BD00BF141B030010B504460846FFF708
:10A74000A7FF30B1D4F8D4300360C4F8D40000209F
:10A7500010BD4FF0FF30FBE758B9CBB2062B00D944
:10A760007047054B53F8210000B970474368934286
:10A77000FBD00068F8E700BF201B002070B50D4D2E
:10A780000D4E0E4C0B480121FBF7A6FF33682BB989
:10A79000BDE8704009480121FBF79EBF2846FBF742
:10A7A000CFFF01212046FBF797FF2046FBF7C8FFAC
:10A7B000E8E700BF1C1B0020181B0020141B002012
:10A7C00010B50A4C0A480121FBF786FF23681BB924
:10A7D00008480121FBF780FF236805485A1C1CBF6D
:10A7E00001332360BDE81040FBF7AABF181B00200F
:10A7F0001C1B0020141B002008B501210848FBF792
:10A800006BFF084A1368591C05D0013B136013B94C
:10A810000548FBF795FFBDE808400148FBF790BFEE
:10A820001C1B0020181B0020141B0020C3B2062B89
:10A8300070B505460E4613D8FFF7A0FF0A4B53F834
:10A840002520144654B93260084843F82560FBF7C8
:10A8500077FF0748FBF774FF204670BD2468F1E7D7
:10A860006FF01500F9E700BF201B0020141B00202B
:10A870001C1B00200A4601460020FFF76DBF70B583
:10A8800005460E46FFF79CFF002004463246294647
:10A89000FFF762FF18B9FFF7AFFF204670BD013424
:10A8A000F4E718B142680021FFF756BF704761B165
:10A8B00090F90C30032B04D0042B04D06FF001006E
:10A8C0007047FCF728BD02F06FBA6FF015007047B3
:10A8D00070B5012104460E48FBF7FEFE002524B9A1
:10A8E000BDE870400A48FBF72BBF637B2668012B4D
:10A8F0000AD1D4E90101657300F0B2F810212046B5
:10A9000000F0AEF83446EAE7013B6373FAE700BFB4
:10A910003C1B002003468B4210B5084606D10C684C
:10A9200000210160FFF7D4FF204610BD31B11A4667
:10A9300022B11168884203D1016811601C46EFE71B
:10A940000A46F5E770B5866804460346002173B9E8
:10A950008E420AD0204600F08FF938B9256855B9E3
:10A9600020682946FFF7B4FF2560002070BD9A6873
:10A970001B681144EBE76068D5E90112304406F02A
:10A980009DFDAB682D681E44E9E7000030B5144C0E
:10A9900003460733206823F00703002140B14268D3
:10A9A0009A4206D3D21A072A08D8036821B923602D
:10A9B00030BD01460068F1E70B60F9E7094D03443B
:10A9C0005D1BB5F5C05F05D9002121600168C3E9B1
:10A9D0000012EDE709B92360F8E70B60F6E700BF66
:10A9E000401B0020401B002010B5094C01212046CF
:10A9F000FBF772FE074A084B136000214FF4C05268
:10AA00002046BDE81040C3E90012FBF799BE00BF25
:10AA10003C1B0020401B0020481B002038B504468A
:10AA20000D4607480121FBF757FE24B9BDE8384021
:10AA30000348FBF785BE637B2B4463732468F4E70C
:10AA40003C1B0020054B834206D803F5C0538342CC
:10AA500094BF00200120704700207047481B002051
:10AA600070B51C4D02462C6810B1FFF7EBFF10BB10
:10AA700070BD234624680CB19442FAD3073121F00B
:10AA8000070115485618801B072898BF0918C2E906
:10AA9000004193B92A6013461A68002AE8D0596821
:10AAA0001944511A0729E3D811681960D11A52685C
:10AAB0000A445A60DCE70023DDE759681A6019444C
:10AAC000511A0729E7D811681960D11A52680A4447
:10AAD0005A60E1E7401B0020483300202DE9F8438D
:10AAE000814610200F4615469846FFF74FFF044653
:10AAF00048B1CDB12846FFF749FF064638B91021C5
:10AB00002046FFF7ADFF00242046BDE8F8831FB1C3
:10AB10002A46394606F0D2FC0123C4E90096A56016
:10AB200084F80C806373EFE72E46F5E7B2F5C05F5B
:10AB3000F8B505460E4614461F460FD801210848B1
:10AB4000FBF7CAFD22463B4631462846FFF7C6FFC3
:10AB500004460348FBF7F4FD2046F8BD0024FBE75C
:10AB60003C1B002038B5012104460E48FBF7B4FD1C
:10AB70001CB90C48FBF7E4FD12E0637B012BF8D90C
:10AB8000D4E9011294F90C302068FFF7A7FF0546BD
:10AB900010B1637B013B63730248FBF7D1FD2C4688
:10ABA000204638BD3C1B00202DE9F8430D460446E5
:10ABB000012130489146FBF78FFD35B12CB1D4F817
:10ABC0000880A84501D3636833B92A48FBF7B8FD6C
:10ABD00000263046BDE8F8831020FFF7D7FE064672
:10ABE0000028F2D0A8453DD0EB1D23F007039D427D
:10ABF0003CD22846FFF7CAFE074620B9102130464E
:10AC0000FFF72EFFE1E7A8EB0500FFF7BFFE804648
:10AC100030B910213046FFF723FF29463846EFE7C9
:10AC200061682A46384606F049FCD4E901124046DC
:10AC30002944521B06F042FCD4E90101FFF710FF42
:10AC4000A368C4F804805B1BA36023680948B5604F
:10AC5000C6E90037012386F80C9073732660FBF772
:10AC60006FFDB6E767684FF00008E9E7676807EB34
:10AC70000508E5E73C1B0020F8B504460D461E48D4
:10AC80000121FBF729FDA668AE4204D11A48FBF763
:10AC900057FD002013E03DB96068F8B13146FFF779
:10ACA000DFFE6560A560F1E7AE4217D22846FFF7E8
:10ACB0006DFE074620B91048FBF742FD0C20F8BD99
:10ACC000616829B1AE42324628BF2A4606F0F6FB3B
:10ACD000D4E90101FFF7C4FE6760E3E7EB1DF21D55
:10ACE00023F0070322F007029342DBD26068F11AD7
:10ACF0001844FFF7B5FED5E73C1B002018B190F9CA
:10AD00000C308B4200D170470068F7E708B5084B5C
:10AD100018684369013306D006F0DEF84EF660236A
:10AD2000B0FBF3F008BD83685B689847F6E700BFA7
:10AD3000101B030038B50C4C142303FB00440546DC
:10AD4000638A23B9637C23F01003637438BDFFF773
:10AD5000DDFF064B53F82530834202D8002363827F
:10AD6000F0E71B1A6382F1E78C3300204C3300209C
:10AD70002DE9F041012180461048114DFBF7ACFC54
:10AD8000002426462746E0B2FFF7D4FF2B7C53B1C0
:10AD90004146284602F0DFFC2B7C834203D8B842B0
:10ADA00084BF2E4607460134102C05F11405EAD164
:10ADB0000248FBF7C5FC3046BDE8F081483300206F
:10ADC0008C3300200F2838B5044616D801210C48D2
:10ADD0000C4DFBF781FC2046FFF7ACFF142303FB6F
:10ADE000045307481B7C33B104EB8404FBF7A8FC35
:10ADF00005EB840038BDFBF7A3FC0020FAE700BF99
:10AE0000483300208C3300202DE9F8430F289DF8AB
:10AE100020500646884614461F4639D8AAB3012159
:10AE20001C48FBF759FC1C4B002F4FF0140909FB81
:10AE3000063908BF0025802C28BF802489F81040DF
:10AE40006D4206EB860403EB840405F010054146D1
:10AE500035432046A9F8127089F8115002F065FCBC
:10AE6000014648B91022204606F0D6FA99F810207B
:10AE70004146204602F08EFCFFF748FF074B07448F
:10AE8000044843F82670FBF75BFC2046BDE8F883D6
:10AE90000024FAE7483300208C3300204C33002094
:10AEA00002480368002B18BF00207047D0340020F0
:10AEB000024B1888013080B218807047CC340020D3
:10AEC0002DE9F04180460D4616461C460DB1B442B0
:10AED00002D32046BDE8F081AB686968371B9F420A
:10AEE00028BF1F4608EB0400BAB23C4406F0E6FA5D
:10AEF000A4B22D68EAE7F8B50E460178934228BF60
:10AF0000134601F10802024405461F46083010F8B6
:10AF1000073CFFF737FA044678B142682B681360A4
:10AF20006B6853600021084601233A46FFF7FEFD97
:10AF3000014628B92046FFF7CBFC00242046F8BD87
:10AF4000B38842685BBA1380F3885BBA5380206091
:10AF5000F4E72DE9F04F0B681C6885B00D464FF003
:10AF60000009002C4AD15B68B3F90200FEF772FDBC
:10AF70002E892F68002E45D1AB8890F8CE60786876
:10AF8000A3EB090306FA83F6043E26F00706F61A39
:10AF9000B6B2331D4A462946FFF7ADFF804600286A
:10AFA00000F088800368D8F804205868037863F0BC
:10AFB0003F0300F8043B137943F010031371396821
:10AFC00032462346FFF77CFF22460746214640468D
:10AFD00000F00CFB002F6DD02B8903951F442F81AF
:10AFE00040F2252302A8ADF80A30FBF7F7FA002853
:10AFF00060D005B0BDE8F04FFBF71CBDA268246827
:10B000009144AEE74E4555D2B0F8CE807868A8F1AD
:10B01000050828F007081FFA88F808F10503C6F1AB
:10B0200005029BB24A442946FFF765FF8246002885
:10B0300040D003685A6893461BF8053B63F01F0332
:10B040001370AB88A3EB09033344DB1013713F6823
:10B0500077B3A64201D1002314E0BB68E21892B294
:10B06000964222D2341BA4B21B1B7968434528BFE9
:10B0700043461A4621445846019306F01FFA019BA5
:10B080003F689BB2424639465846FFF719FF0644CF
:10B09000B14581BFDAF80420137943F0100313712E
:10B0A000002207461146504692E73F681446CFE714
:10B0B0003B46E7E728680021FFF70AFC00232B60E6
:10B0C00005B0BDE8F08F436819782DE9F04101F033
:10B0D000F8010668C029D6F804800446174619D03E
:10B0E000E02912D11D79ED0001213046FFF796FCD1
:10B0F0003B462A462146404600F0F2F910B141464F
:10B1000000F008FA0021304600E00021BDE8F041DF
:10B11000FFF7DEBB0025E7E74269013201D005F009
:10B12000DBBE83685B6818470021FFF7D1BB0000D6
:10B1300007B5074B07481B88074A084900681BB238
:10B140000093074B06F050F803B05DF804FB00BF16
:10B15000D80E0020141B0300C0C62D00DC340020D4
:10B1600000020020002203680BB9038370471968AE
:10B17000C3E900220160F6E710B5FFF7F3FF0023F3
:10B18000036210BDF8B50C4B0C4C18680C4FFFF760
:10B19000C3FF04250646206A40B1E369F31ABB42A7
:10B1A00004D9FFF7C1FF2046FFF7E6FF013D04F198
:10B1B0002404F0D1F8BD00BF141B0300EC340020C0
:10B1C000C0C62D002DE9F04F93468BB0024609937F
:10B1D00012F8083B05920833C31804934B681A7899
:10B1E00002F0F802C02A04460E460AD0E02A7AD0BD
:10B1F0003046FFF799FF4FF0FF3420460BB0BDE813
:10B20000F08F1A1DB5680092BBF1000F6DD1032DB0
:10B21000EED9009A1278412A69D0043D002DE7D07A
:10B220001A8852BAC2F30A0203925B885BBAADF87D
:10B230001E309BB20893FFF7A5FF23780193637834
:10B240000293A24BA24C1868FFF766FF4FF000086C
:10B2500006904746C246236AA146002B00F0D180E3
:10B26000E38A089A934240F0CF80238B039A9A4254
:10B2700040F0CA80237D019A9A4240F0C580637DE8
:10B28000029A9A4240F0C080019A0599201D06F06A
:10B29000AFF9002840F0B880029A049904F10C003C
:10B2A00006F0A6F9002840F0AF80894B242202FB6B
:10B2B0000A33069ADA61FFF73BFF5446DFF810C203
:10B2C0002420604300EB0C070BEB05033A8B934201
:10B2D00011D9386AFFF728FF3046FFF725FF3846B7
:10B2E000FFF74AFF87E75A1D8CE7042D80D9053DFB
:10B2F00094E7C846AFE71FFA8BF15CF800804A1E5E
:10B300002A44434692B26BBB4A1E12FA85F292B2AD
:10B31000DFF8C49101921FFA85FA39F833204FEA19
:10B32000C30E8ABBDFF8B491019ACE444CF800E01A
:10B33000AEF80410AEF8062049F833807B8BDFF8B6
:10B34000908153447B83BBF1000F2FD0242303FB58
:10B3500004880099D8F8203058682A46584406F0E6
:10B36000ADF81FE0B3F804E0724509D3B3F80690D6
:10B37000494505D8714540F09C804A4540F0998088
:10B38000F3450FD01B68BEE70133342BC5D124230E
:10B3900003FB04C34FF0FF34186AFFF7C5FE3846BD
:10B3A000FFF7EAFE3046FFF7BFFE26E7009B1B785B
:10B3B00003F0E002602A1ED173681B7803F0D80303
:10B3C000C02B04D0242303FB0483186A82E70122E4
:10B3D00004213046FFF7E8FB0028F3D05A463946EF
:10B3E000304600F0F1FE242303FB04831B6A002B8C
:10B3F0007FF403AFFFE6412B02BF009B01330093B4
:10B40000A4E7002F08BF2746B8F1000F09D0E26972
:10B41000D8F81C309B1A6FF00042934234BFA1460B
:10B42000C1460AF1010ABAF1040F04F124047FF4C1
:10B4300060AF3FB9D9F82000FFF776FE4846FFF726
:10B440009BFE4F46099B039AB3FA83F300215B09E5
:10B450005B000846FFF76AFB386200283FF4C8AE7D
:10B46000436813B100221A605A60039B3B83069B1A
:10B47000FB61019A0599381D06F020F8029A04999B
:10B4800007F10C0006F01AF8019B3B75029B7B75D7
:10B49000BDF81E30FB8200237B83FFF749FE0C4B77
:10B4A0000C4AFB1A9C10002B02FB04F4BFF606AFFB
:10B4B0009EE6242303FB04C36FF00104186AFFF720
:10B4C00033FE3846FFF758FE97E600BF141B030013
:10B4D000EC340020398EE338823500207C350020A2
:10B4E000F8B51F4604460D461646FFF76BFE831C53
:10B4F00005D13B46324629462046FFF763FE002829
:10B50000A3BF034B242202FB00300020F8BD00BF84
:10B51000EC34002038B5428B038B9A4204460D462A
:10B520002ED1437D017D00F10C020430FEF72AFF8D
:10B5300040B9206AFFF7F8FD2046FFF71DFE4FF0E7
:10B54000FF3038BD4368B5F902205A802A791A7154
:10B550006A795A71B5F90620DA80226A32B1134647
:10B5600019461B68002BFBD10860104600222062A0
:10B57000114600F029F82046FFF7FEFD0120E0E724
:10B580000020DEE70021FFF7A3B900001FB50A4C39
:10B59000B4F9000000280CDC084B094A0293002390
:10B5A00000920848019303224FF47071FBF770FA80
:10B5B000208004B010BD00BF1C3B0020FE1803001B
:10B5C00085B602005C37002010B5034604460649E4
:10B5D00040F201220220FDF7C0FF20B92046BDE85D
:10B5E0001040FFF7CFBF10BD0000FFFF436810B54C
:10B5F0000446B3F90200FEF72DFA40F20222B0F938
:10B6000072012146FDF77EFF002804DC2046BDE8DC
:10B610001040FFF7B7BF10BD2DE9F04106681F4687
:10B620000446884600235EB9B2F8CE200AB19A4299
:10B630000AD33A4620460021BDE8F041FFF7D6BFC5
:10B64000B16836680B44EEE7B8F5006F17D2FFF724
:10B6500027FC054628B90C212046BDE8F041FFF73C
:10B6600037B90460A0F80480FFF722FC2E81E8803F
:10B670003A4629462046BDE8F041FFF76ABC7A21E8
:10B68000EAE7000080B5102288B00DEB020000212F
:10B6900005F0C2FE5F4B05935F4B60481B88ADF819
:10B6A0001C300821FBF70CF804A90120FFF7BEF8B5
:10B6B00040F20523ADF80A3040F202266FF085070C
:10B6C0006846FAF7FAFFBDF80230B3F5017F30D8CB
:10B6D000B34200F2928040F20122934234D0B3424E
:10B6E000EED1019DB5B3AB68072B33D92B688BB373
:10B6F00093F90C30022B2DD12846FFF733FA04467C
:10B7000040B34368B3F90200FEF7A4F92568804608
:10B710004FF00009002D57D1B8F1000F24D0D8F810
:10B72000A430DB0554D52A462946204600F055FFB3
:10B73000C6E740F22522934265D040F2262293428A
:10B74000BED1FFF71FFDBBE7019D2846FFF70AFAB0
:10B75000044618B92846FFF715FFB1E70121FFF7A6
:10B76000CDFA08B182680AB92046F4E743681B782D
:10B77000412B15D1FFF7F6F905460028F4D0012238
:10B780001146FFF711FA01460028EDD02046FFF7D9
:10B79000C1F8022300222B731146FFF715FF8FE734
:10B7A00003F0D802C02A09D003F0E003602BDBD1FC
:10B7B00000221146204600F007FD81E700221146D5
:10B7C0002046FFF780FC7BE7AB682D689944A1E732
:10B7D00001231A4629462846FFF7A8F90028C3D0B6
:10B7E000236803604368206041221A7049462B4653
:10B7F00042462046FFF710FF62E702A9684603971A
:10B80000FAF736FF5CE7002201991046FFF7A1FB2B
:10B8100056E700BF0000FFFFD80E00201C370020B5
:10B820003C280ED8282805D868B1112814BF00205C
:10B8300001207047054B2938C0B2C34003F0010016
:10B8400070478728F2E70120704700BF0D0008000D
:10B85000024A13680360536843607047CA190300C3
:10B860001022002105F0D8BD0021FFF731B80000FB
:10B8700010B50A490822044605F0BAFE48B12378FB
:10B88000FF2B08D1607800F00F00831E584258410A
:10B8900010BD0120FCE70020FAE700BFCA19030031
:10B8A0002DE9F34188461A49034608684968154658
:10B8B0006A4603C2184623B35E7C16F0100625D1F3
:10B8C0001C7C802C20D0402C20D9E708F91F781C44
:10B8D000C7F10F022944404405F08AFEB0B93D4447
:10B8E00018F8072015F8083C04F00704534004F149
:10B8F00008020DEB020414F8082C13420CBF0120BF
:10B90000002002B0BDE8F0810120FAE70020F8E74E
:10B910000219030010B50446084611468368934295
:10B9200003D90022FFF740F920B101462046FEF777
:10B93000F1FF012010BD70B505460E46144622B138
:10B940001046FFF70FFC002323623046FFF78CFF01
:10B950002846BDE87040FFF787BF00002DE9F04F93
:10B960008B4687B092461D46002800F00981466844
:10B97000B04960232B7006F1080900236B70102278
:10B98000484605F035FEE0B94FF00008337EFF2B46
:10B9900000F0128206F118042046FFF7E9F9074685
:10B9A000002800F00982437CDB0640F10582214635
:10B9B00001F0D1FE3F2840F2FF81B8F1000F17D00F
:10B9C0000FE04846FFF7D4F980460028DCD0437CDE
:10B9D000DA06D9D5494601F0BEFE3F28D4D9D5E7CD
:10B9E000002798F811301C0706D1002F00F0E981DC
:10B9F0007B7C180700F0E5816B7863F07F036B7048
:10BA00000023AB70032433687278307823F47043DA
:10BA100023F0FF0311090201002B63D10A43D2B2C4
:10BA20002B78002A52D143F018032B70B2791046BC
:10BA3000FFF7F6FE00287DD02B7843F004032B702F
:10BA4000F379402B7AD0FF2B7CD0012B7ED12B7841
:10BA500043F001032B7077491022484605F0C8FDDA
:10BA6000002877D16B7843F040036B70337EFF2B57
:10BA700040F040816B7843F008026A70728B2F1996
:10BA8000002A40F00781F269002A40F00381328CDD
:10BA9000002A40F0FF80727E022A40F0CD80326A98
:10BAA000002A40F0C980B28C002A40F0C58096F888
:10BAB0002620002A40F0C08043F00B036B7096F8FC
:10BAC00027303B700134A4B220465AE043F0100303
:10BAD0002B70337871781B01621C43EA11132B55CC
